:200000000C9486000C94AE000C94AE000C94AE000C94AE000C94AE000C94AE000C945503EE
:200020000C94AE000C94AE000C94AE000C94AE000C94AE000C94AE000C94AE000C94AE0050
:200040000C94B3020C94AE000C9423030C94FD020C94AE000C94AE000C94AE000C94AE0060
:200060000C94AE000C94AE003D3D3D205465737420636F6D706C657461646F203D3D3D004E
:200080005072696D65726F7320313620627974657320656E203078363030303A004465736A
:2000A000707565733A203078004552524F523A204573637269747572612066616C6C69645F
:2000C0006100457363726974757261204F4B002E2E2E0045736372696269656E646F2065DD
:2000E0006E20307800416E7465733A2020203078003D3D3D20426F6F744A61636B657220B2
:2001000054657374203D3D3D0000D70411241FBECFEFD8E0DEBFCDBF11E0A0E0B1E0EAE60A
:20012000FAE002C005900D92A631B107D9F721E0A6E1B1E001C01D92A13CB207E1F710E0A9
:20014000C6E8D0E004C02197FE010E942605C538D107C9F70E946D030C9433050C940000DA
:200160008F929F92AF92CF92DF920F93109223011092B2008DE78093B30082E087BB80936D
:2001800070008093B00087E08093B10080E090E6EFEDF0E0E0932101F0932201EDB7E0932D
:2001A0001F01EEB7E09320016C0101E0802E05E0A02E01E1902E7894EDE7FFE30994809127
:2001C00023018823E1F31092B100109270000F91DF90CF90AF909F908F900895BF92CF92CD
:2001E000DF920F93109223011092B2008EE48093B30082E087BB809370008093B00087E049
:200200008093B10080E090E6E7E1F1E0E0932101F0932201EDB7E0931F01EEB7E093200100
:200220006C0103E0B02E7894EBE6FFE30994809123018823E1F31092B100109270000F917B
:20024000DF90CF90BF900895AF92BF92CF92DF92EF92FF920F931F93CF93DF936C017B015D
:200260008B01040F151FEB015E01AE18BF08C017D10759F06991D601ED91FC910190F081FD
:20028000E02DC6010995892B79F7C501DF91CF911F910F91FF90EF90DF90CF90BF90AF9078
:2002A0000895FC01538D448D252F30E0842F90E0821B930B541710F0CF960895019708958F
:2002C000FC01918D828D981761F0A28DAE0FBF2FB11D5D968C91928D9F5F9F73928F90E07C
:2002E00008958FEF9FEF0895FC01918D828D981731F0828DE80FF11D858D90E008958FEF0D
:200300009FEF0895FC01918D228D892F90E0805C9F4F821B91098F739927089584E291E089
:200320000E94820121E0892B09F420E0822F089580E090E0892B29F00E948E0181110C9498
:2003400000000895FC01A48DA80FB92FB11DA35ABF4F2C91848D90E001968F739927848FB0
:20036000A689B7892C93A089B1898C91837080648C93938D848D981306C00288F389E02D24
:2003800080818F7D80830895EF92FF920F931F93CF93DF93EC0181E0888F9B8D8C8D981325
:2003A0001AC0E889F989808185FF15C09FB7F894EE89FF896083E889F98980818370806487
:2003C00080839FBF81E090E0DF91CF911F910F91FF90EF900895F62E0B8D10E00F5F1F4F98
:2003E0000F731127E02E8C8D8E110CC00FB607FCFACFE889F989808185FFF5CFCE010E9473
:20040000A201F1CFEB8DEC0FFD2FF11DE35AFF4FF0829FB7F8940B8FEA89FB898081806279
:20042000CFCF0F931F93CF93DF938C01D0E0C0E0F801EC0FFD1F6491662341F084E291E083
:200440000E94C401892B11F02196F2CFCE01DF91CF911F910F910895682F84E291E00C946E
:20046000C401CF93DF93EC01888D8823B9F0AA89BB89E889F9898C9185FD03C0808186FD3D
:200480000DC00FB607FCF7CF8C9185FFF2CF808185FFEDCFCE010E94A201E9CFDF91CF91C2
:2004A00008958F929F92AF92BF920F931F93CF93DF93CDB7DEB7A1970FB6F894DEBF0FBE87
:2004C000CDBF19A2423008F44AE08E010F5D1F4F842E912CB12CA12CA50194010E940405D5
:2004E000E62FB901CA01EA3044F5E05DD801EE938D01232B242B252B79F790E080E0109716
:2005000069F0FD0101900020E9F73197AF014A1B5B0BBD0184E291E00E942401A1960FB658
:20052000F894DEBF0FBECDBFDF91CF911F910F91BF90AF909F908F900895E95CD7CF42E093
:2005400050E062E171E084E291E00C942401CF93DF930E941102EC010E949F028C0F9D1F2B
:20056000DF91CF9108951F920F920FB60F9211242F933F938F939F93AF93BF9380911B0178
:2005800090911C01A0911D01B0911E0130911A0123E0230F2D3758F50196A11DB11D2093D6
:2005A0001A0180931B0190931C01A0931D01B0931E018091160190911701A0911801B09112
:2005C00019010196A11DB11D8093160190931701A0931801B0931901BF91AF919F918F91F0
:2005E0003F912F910F900FBE0F901F90189526E8230F0296A11DB11DD2CF1F920F920FB6E8
:200600000F9211242F933F934F935F936F937F938F939F93AF93BF93EF93FF9384E291E0B5
:200620000E94A201FF91EF91BF91AF919F918F917F916F915F914F913F912F910F900FBEA9
:200640000F901F9018951F920F920FB60F9211242F938F939F93EF93FF93E0913401F09161
:2006600035018081E0913A01F0913B0182FD1BC0908180913D018F5F8F7320913E018217A7
:2006800041F0E0913D01F0E0EC5DFE4F958F80933D01FF91EF919F918F912F910F900FBE13
:2006A0000F901F9018958081F4CFE0E0E093B100E0937000E1E0E0932301E0911F01EDBF1F
:2006C000E0912001EEBFE0912201EF93E0912101EF931124EE27FF271895CF93DF93CDB73B
:2006E000DEB7DA950FB6F894DEBF0FBECDBF789484B5826084BD84B5816084BD85B58260D0
:2007000085BD85B5816085BD80916E00816080936E0010928100809181008260809381002E
:2007200080918100816080938100809180008160809380008091B10084608093B100809132
:20074000B00081608093B00080917A00846080937A0080917A00826080937A0080917A00C4
:20076000816080937A0080917A00806880937A001092C100E0913401F091350182E08083E6
:20078000E0913001F09131011082E0913201F091330180E1808310923C01E0913801F091AB
:2007A000390186E08083E0913601F0913701808180618083E0913601F09137018081886006
:2007C0008083E0913601F0913701808180688083E0913601F091370180818F7D808381EFE8
:2007E00090E00E94A7020E949F021092B0001092B1001092B20010927000E0E0F0E61491B5
:2008000085EE90E00E941102103118F480E30E942C02612F70E090E080E040E10E945102FA
:200820000E949F0240E850E06FEF70E0CE018F579F4F0E942C0585E0CF57DF4F8883C1581C
:20084000D04083ED90E00E94110240E160E070E680E090E00E9451028FEC90E00E94A70241
:20086000F89400916E00F0906F0010926E0010926F0080E8E0E0F1E0DE01119601900D922E
:200880008A95E1F780E8FE01EF57FF4FA0E0B1E001900D928A95E1F713E00E94EE000E9409
:2008A000B00080E8FE013196A0E0B1E001900D928A95E1F7DE01AF57BF4FE0E0F0E6949174
:2008C0008D9198130AC03196E03880E6F807B9F780E019C089EA90E01FC080E8FE01EF57E9
:2008E000FF4FA0E0B1E001900D928A95E1F71150A1F680E8FE013196A0E0B1E001900D920B
:200900008A95E1F781E000936E00F0926F0078948111E0CF82EC90E00E94A702E0E0F0E681
:2009200014918DE990E00E941102103118F480E30E942C02612F70E090E080E040E10E9484
:2009400051020E949F020E949F0280E890E00E94A70200E010E6F801F490FFE0FF1518F04D
:2009600080E30E942C026F2D70E090E080E040E10E94510280E20E942C020F5F1F4F003133
:2009800080E6180741F70E949F020E949F0288E690E00E94A70200E010E001151105E9F313
:2009A0000E948E018823C9F30E940000F6CFE4E2F1E01382128288EE93E0A0E0B0E0848378
:2009C0009583A683B78384E091E09183808385EC90E09587848784EC90E09787868780EC31
:2009E00090E0918B808B81EC90E0938B828B82EC90E0958B848B86EC90E0978B868B118E97
:200A0000128E138E148E0895A1E21A2EAA1BBB1BFD010DC0AA1FBB1FEE1FFF1FA217B307E4
:200A2000E407F50720F0A21BB30BE40BF50B661F771F881F991F1A9469F7609570958095BE
:200A400090959B01AC01BD01CF010895EE0FFF1F0590F491E02D0994DC0101C06D934150EF
:200A60005040E0F70895F894FFCF00000000C4012401510131028201600174010D0A000039
:200A80008FEF9FEF0895FC01918D228D892F90E0805C9F4F821B91098F7399270895FC015E
:200AA000A48DA80FB92FB11DA35ABF4F2C91848D90E001968F739927848FA689B7892C93B5
:200AC000A089B1898C91837080648C93938D848D981306C00288F389E02D80818F7D8083DB
:200AE0000895EF92FF920F931F93CF93DF93EC0181E0888F9B8D8C8D98131AC0E889F98901
:200B0000808185FF15C09FB7F894EE89FF896083E889F98980818370806480839FBF81E02A
:200B200090E0DF91CF911F910F91FF90EF900895F62E0B8D10E00F5F1F4F0F731127E02E2A
:200B40008C8D8E110CC00FB607FCFACFE889F989808185FFF5CFCE010E944F05F1CFEB8D47
:200B6000EC0FFD2FF11DE35AFF4FF0829FB7F8940B8FEA89FB8980818062CFCF0F931F93FB
:200B8000CF93DF938C01D0E0C0E0F801EC0FFD1F6491662341F089E492E00E947105892B3A
:200BA00011F02196F2CFCE01DF91CF911F910F910895CF93DF93EC01888D8823B9F0AA89D3
:200BC000BB89E889F9898C9185FD03C0808186FD0DC00FB607FCF7CF8C9185FFF2CF80813A
:200BE00085FFEDCFCE010E944F05E9CFDF91CF91089589E492E00E94430521E0892B09F450
:200C000020E0822F089580E090E0892B29F00E94F90581110C940000089590E0FC01E05CD1
:200C2000F64F2491FC01E458F64F3491FC01E859F64FE491EE23C9F0222339F0233001F102
:200C4000A8F4213019F1223029F1F0E0EE0FFF1FEC5AF64FA591B4918FB7F894EC9161117F
:200C600026C030953E233C938FBF08952730A9F02830C9F0243049F7809180008F7D03C0B9
:200C8000809180008F7780938000DFCF84B58F7784BDDBCF84B58F7DFBCF8091B0008F777C
:200CA0008093B000D2CF8091B0008F7DF9CF3E2BDACF1F93CF93DF93182FEB010E94F304D7
:200CC000209739F460E0812FDF91CF911F910C940D06CF3FD10511F461E0F5CFE12FF0E03F
:200CE000E05CF64FE491E33031F140F4E130B1F0E230E1F0C038D1057CF7E4CFE73029F1DB
:200D0000E83059F1E430B1F780918000806280938000D0938B00C0938A0004C084B58068FF
:200D200084BDC7BDDF91CF911F91089584B5806284BDC8BDF7CF809180008068809380001E
:200D4000D0938900C0938800EDCF8091B00080688093B000C093B300E5CF8091B000806247
:200D60008093B000C093B400DDCF3FB7F8948091F5019091F601A091F701B091F80126B51E
:200D8000A89B05C02F3F19F00196A11DB11D3FBFBA2FA92F982F8827BC01CD01620F711DF2
:200DA000811D911D42E0660F771F881F991F4A95D1F708958F929F92AF92BF92CF92DF9261
:200DC000EF92FF924B015C010E94B5066B017C010E94B5066C197D098E099F09683E734012
:200DE00081059105A8F321E0821A9108A108B10888EEC80E83E0D81EE11CF11C81149104CB
:200E0000A104B10429F7FF90EF90DF90CF90BF90AF909F908F9008952FB7F8946091F101AE
:200E20007091F2018091F3019091F4012FBF089581E08093EE010895089508950895AF9200
:200E4000BF92CF92DF92EF92FF920F931F93CF93DF936C017B018B01040F151FEB015E012E
:200E6000AE18BF08C017D10759F06991D601ED91FC910190F081E02DC6010995892B79F779
:200E8000C501DF91CF911F910F91FF90EF90DF90CF90BF90AF90089520917301260F3327B1
:200EA000331F21323105ECF420911F02FC0190E080E0243069F082E00895A09173012191D5
:200EC000AC014D5A5E4FA40FB52FB11D2C930196861798F380917301680F6093730180E06B
:200EE000089581E0089510921F0281E080931E021092F90161E082E10E940D0661E083E166
:200F00000E940D06E9EBF0E080818E7F808380818D7F808388E48093B80085E48093BC00E8
:200F20000895CF93DF9391E0909352018823B9F0C091B800D091BA008091BC008A7B8093FC
:200F4000BC0060E082E10E940D0660E083E10E940D060E947307D093BA00C093B800DF9170
:200F6000CF9108958F929F92AF92BF92CF92DF92EF92FF920F931F93CF93DF93D0914802D9
:200F8000D13208F0D7C0182FC09147020E94B5066B017C0180911F0281116BC082E0809334
:200FA0001F0210931E028FEF80931D0210921C02D0931B02A7E2B2E0EBEFF1E080E0D8134C
:200FC00091C01092FA018091FA01CC0FC82BC093FA018091F901813009F088C01092F90162
:200FE0000E94B5066B017C018091FA018093BB008091210290912202A0912302B09124029B
:20100000892B8A2B8B2BA1F00E94B506009121021091220220912302309124026C197D0982
:201020008E099F09061717072807390708F442C08091BC0083FDD8CF85EC8093BC000E94F3
:20104000B5066B017C0180911F02823009F450C080911D028F3F09F46FC080911D028032EF
:2010600009F46CC080911D02803309F469C084E026C08091210290912202A0912302B091E4
:201080002402892B8A2B8B2B09F484CF0E94B5068090210290902202A0902302B09024022C
:2010A0006C197D098E099F0986169706A806B90608F070CF809120020E94910785E0109295
:2010C00026021092480210922502DF91CF911F910F91FF90EF90DF90CF90BF90AF909F907A
:2010E0008F9008959D9191938F5F69CF85EEA5CF8091210290912202A0912302B09124029F
:20110000892B8A2B8B2B09F49ECF0E94B506009121021091220220912302309124026C192E
:201120007D098E099F09061717072807390708F08ACFC0CF81E0C3CF80E0C1CF82E0BFCF8D
:2011400083E0BDCF0895E0919B0180919A01E81730F4F0E0EE5CFE4F808190E008958FEF34
:201160009FEF089590919B0180919A012FEF3FEF981748F4E92FF0E0EE5CFE4F208130E074
:201180009F5F90939B01C901089580919A0190919B01891B990B0895CF92DF92EF92FF92F9
:2011A0000F931F93CF93DF937C01CB018A0120912502222389F0EB016B01C40ED51ECC159F
:2011C000DD0569F06991D701ED91FC910190F081E02DC7010995F3CF642F0E944C07C8016F
:2011E000DF91CF911F910F91FF90EF90DF90CF900895CF93DF931F92CDB7DEB7698320911B
:2012000025022223F9F020914802203258F021E030E0FC013383228390E080E00F90DF919C
:20122000CF91089580912602E82FF0E0E95DFD4F998190838F5F809326028093480281E0EB
:2012400090E0ECCF61E0CE0101960E944C07F7CFCF93DF93EA0191E090932502809347022B
:20126000109226021092480286EE92E00E94F908698186EE92E00E94F908688186EE92E0ED
:201280000E94F90881E00E94B20791E0811190E0892FDF91CF91089590E080E00895FF9259
:2012A0000F931F93CF93DF93042FF22E132F91E090932502809347021092260210924802A4
:2012C00086EE92E00E94F908CF2DD12F0C0F1D2F111DC017D10731F0699186EE92E00E94A2
:2012E000F908F7CF81E00E94B20791E0811190E0892FDF91CF911F910F91FF900895CF9392
:20130000DF931F92CDB7DEB749839E012F5F3F4F41E00E944F090F90DF91CF910895482F6C
:201320006EE6809167030C947F09CF93DF930E94BE05EC0142E050E06EE271E089E492E0BE
:201340000E941F078C0F9D1FDF91CF9108952F923F924F925F926F927F928F929F92AF92F8
:20136000BF92CF92DF92EF92FF920F931F93CF93DF93CDB7DEB72A970FB6F894DEBF0FBE7B
:20138000CDBFE82ED62EF42E3A83298318010E940C074B015C01CE2CCC0C00E01A8611E062
:2013A0002F2D30E03C832B83C101B0E0A0E08D839E83AF83B8870F1508F013C11093250226
:2013C000E092470210922602109248026D2D86EE92E00E94F90881E00E94B20710932502F3
:2013E00010922602109248020E94B5062B013C0180911F02811175C08B819C81801B91091A
:201400008132910514F080E290E08987813210F090E2998710931F0210931E02AFEFA09300
:201420001D0210921C028985815080931B021093FA018091FA018C298093FA018091F90146
:20144000813009F091C01092F9010E94B5062B013C018091FA018093BB0080912102909100
:201460002202A0912302B0912402892B8A2B8B2BA1F00E94B50620912102309122024091F4
:201480002302509124026419750986099709261737074807590708F445C08091BC0083FD7E
:2014A000D8CFB5ECB093BC000E94B5062B013C0180911F02813009F45BC080911C02398537
:2014C000831718F440911C024987EBEFF1E0A2E3B1E080E05985851751F191919D938F5F8A
:2014E000F9CF8091210290912202A0912302B0912402892B8A2B8B2B09F47ACF0E94B5062C
:201500002091210230912202409123025091240264197509860997092617370748075907C1
:2015200008F066CF809120020E949107198610929B01898580939A0180919B0199859817FE
:2015400009F448C021143104A9F586EE92E00E94B208E981FA81AA85EA0FF11DA7FDFA95EE
:201560008083AF5FAA87E8CF25EE2093BC009CCF8091210290912202A0912302B09124024F
:20158000892B8A2B8B2B09F493CF0E94B5062091210230912202409123025091240264193D
:2015A000750986099709261737074807590708F07FCFB8CF0E940C07681979098A099B0998
:2015C0002D813E814F815885621773078407950708F4BBCF8F2D30E23F1508F480E2080FBA
:2015E000EACE21143104D1F00E940C07AB01BC01481959096A097B09C101B0E0A0E04817FF
:2016000059076A077B0750F04A85842F440F990BF816190619F014F05FEF5A878A852A9686
:201620000FB6F894DEBF0FBECDBFDF91CF911F910F91FF90EF90DF90CF90BF90AF909F90AA
:201640008F907F906F905F904F903F902F900895CF92DF92EF92FF920F931F93CF93DF9358
:201660001F92CDB7DEB7F82EE62EC42ED22E08EE13E09E012F5F3F4F41E00E94A70981E0FC
:2016800090E001C0880FCA94EAF74981DD2081F0482B49836E2D8F2D0E947F090F90DF913C
:2016A000CF911F910F91FF90EF90DF90CF90089580954823EECF21E042E06AE680916703D6
:2016C0000C94280B0F931F93CF93DF93C7E6D3E008EE13E028E633E041E06AE388810E948C
:2016E000A7098981DF91CF911F910F9108952F923F924F925F926F927F928F929F92AF926A
:20170000BF92CF92DF92EF92FF920F931F93CF93DF933C015B01242E522E302E4F716DE690
:20172000809167030E947F09852D0E948F0980E190E00E94C21D6C01002329F080E190E04C
:201740000E94C21D7C01D0E0C0E0CA15DB0508F080C0CE014096A816B906E8F44A2C4C1A6A
:2017600080E091E0851991094816190619F014F0452C4194332091F0D70190E080E0930180
:201780002C0F3D1F841568F4F901E80FF91FE491ED930196F7CF80E1482EE2CF7301EC0E6C
:2017A000FD1E9701442D6FE6809167030E944F09842C912CC114D104B9F1422D4F716DE6F8
:2017C000809167030E947F09852D0E948F0908EE13E09601442D6FE6809167030E94A70965
:2017E000A401B601C7010E94A41F892BE9F0C6010E945E1E332021F0C7010E945E1E312C47
:20180000832DDF91CF911F910F91FF90EF90DF90CF90BF90AF909F908F907F906F905F9043
:201820004F903F902F900895C80DD91D540CCA15DB0508F08ACF511001C02394422D4F715B
:201840006DE6809167030E947F09852D0E948F097CCFC6010E945E1E332021F0C7010E94A6
:201860005E1ECECF33243394CBCF0F931F93462F08EE13E09C0164E7809167030E94A70930
:201880001F910F9108950F931F93CF93DF93C7E6D3E008EE13E028E633E042E062E7888155
:2018A0000E94A70989819A81982789279827DF91CF911F910F910895EF92FF920F931F9360
:2018C000CF93DF931F92CDB7DEB77A0189019E012F5F3F4F41E00E94A709882339F02981B9
:2018E0002E7730E035952795F70120830F90DF91CF911F910F91FF90EF900895BF92CF92F6
:20190000DF92EF92FF920F931F93CF93DF931F92CDB7DEB7F82EE62EC42EB22ED02E08EE52
:2019200013E09E012F5F3F4F41E00E94A709882371F18C2D8B19990BAC014F5F5F4F81E00E
:2019400090E002C0880F991FBA94E2F70197042E01C0880F0A94EAF70D2D01C0000F4A9555
:20196000EAF7482F4095998149238023482B49836E2D8F2D0E947F090F90DF91CF911F9132
:201980000F91FF90EF90DF90CF90BF90089580E0F3CF85ED8093BC00809121029091220203
:2019A000A0912302B09124020796A11DB11D23E0B695A795979587952A95D1F72091BC007B
:2019C00024FD03C010921F02089540912102509122026091230270912402452B462B472B3A
:2019E00069F30097A105B10541F02AE22A95F1F700C00197A109B109E1CF809120020C9475
:201A000091071F920F920FB60F9211242F933F938F939F93AF93BF938091F1019091F201AE
:201A2000A091F301B091F4013091F00123E0230F2D3758F50196A11DB11D2093F0018093D9
:201A4000F1019093F201A093F301B093F4018091F5019091F601A091F701B091F801019606
:201A6000A11DB11D8093F5019093F601A093F701B093F801BF91AF919F918F913F912F91E0
:201A80000F900FBE0F901F90189526E8230F0296A11DB11DD2CF1F920F920FB60F921124ED
:201AA0002F933F934F935F936F937F938F939F93AF93BF93EF93FF93E0910201F0910301B5
:201AC0000995FF91EF91BF91AF919F918F917F916F915F914F913F912F910F900FBE0F90FD
:201AE0001F9018951F920F920FB60F9211242F933F934F935F936F937F938F939F93AF938B
:201B0000BF93EF93FF93E0910001F09101010995FF91EF91BF91AF919F918F917F916F91CC
:201B20005F914F913F912F910F900FBE0F901F9018951F920F920FB60F9211242F933F935D
:201B40004F935F936F937F938F939F93AF93BF93EF93FF9389E492E00E944F05FF91EF91BC
:201B6000BF91AF919F918F917F916F915F914F913F912F910F900FBE0F901F9018951F92FD
:201B80000F920FB60F9211242F938F939F93EF93FF93E0915902F0915A028081E0915F0263
:201BA000F091600282FD1BC09081809162028F5F8F7320916302821741F0E0916202F0E0ED
:201BC000E75BFD4F958F80936202FF91EF919F918F912F910F900FBE0F901F901895808154
:201BE000F4CF1F920F920FB60F9211242F933F934F935F936F937F938F939F93AF93BF93D1
:201C0000EF93FF938091B900887F803609F44AC0F0F5883209F4A7C018F5803109F49BC009
:201C2000B8F4882309F4F9C0883009F494C0FF91EF91BF91AF919F918F917F916F915F919E
:201C40004F913F912F910F900FBE0F901F901895883109F488C0803251F780931D0214C0AF
:201C6000803409F49DC040F48033B9F38833F9F680931D0285ECB0C0803509F485C0883552
:201C800009F496C0883499F60E94C90CD0CF883909F48CC038F5883729F050F4883611F07E
:201CA000803729F683E080931F021092950157C0883809F47BC0803919F0803809F0B7CF77
:201CC00080919501803208F071C0E091950181E08E0F809395018091BB00F0E0EB58FE4FA8
:201CE00080833DC0803B39F0E0F4803A09F479C0883A09F09CCF84E080931F021092740167
:201D000010927301E0919801F091990109958091730181110FC081E0809373011092530126
:201D200009C0803C09F4A6CF883C09F4A3CF883B09F07DCFE091740181E08E0F8093740105
:201D4000F0E0ED5AFE4F80818093BB00909174018091730129C08091FA018093BB0085EC01
:201D60008093BC0064CF90911C0280911B02981758F5E0911C0281E08E0F80931C02F0E06A
:201D8000E550FE4F8081E9CFE0911C0281E08E0F80931C028091BB00F0E0E550FE4F808329
:201DA00090911C0280911B029817C8F285E8D8CFE0911C0281E08E0F80931C028091BB00AF
:201DC000F0E0E550FE4F808380911E0281115CCF81E08093F90184EA8093BC0010921F0252
:201DE00026CF85EC8093BC0010921F0280919501803230F4E0919501F0E0EB58FE4F108275
:201E00006091950170E0E0919601F091970185E791E00995109295010ACF10921D0234CF7A
:201E20008F929F92AF92BF92CF92DF92EF92FF920F931F93CF93DF9310924C0210924B02D3
:201E400088EE93E0A0E0B0E080934D0290934E02A0934F02B09350022EE031E030934A026D
:201E60002093490225EC30E0309356022093550224EC30E0309358022093570220EC30E0B9
:201E800030935A022093590221EC30E030935C0220935B0222EC30E030935E0220935D0274
:201EA00026EC30E03093600220935F02109262021092630210926402109265021092E9021C
:201EC0001092E8028093EA029093EB02A093EC02B093ED0280E291E09093E7028093E6023A
:201EE00088E68093670380E090E0A0E8BFE38093570390935803A0935903B0935A03109241
:201F00005B0310925C0310925D0310925E0310925F031092600310926103109262031092A5
:201F2000630310926403109265031092660310924B0310924C0310924D0310924E031092B5
:201F40004F031092500310925103109252031092530310925403109255031092560380E007
:201F600090E8ACE2B3E48093470390934803A0934903B0934A0310923E0310923F03109281
:201F8000400310924103812C912C8FE7A82E83E4B82E8092420390924303A0924403B0929B
:201FA000450380914603882309F453C0C0912C03D0912D03C880D980EA80FB80A5019401F2
:201FC000C701B6010E94E31C18162CF588829982AA82BB828090340390903503A0903603FC
:201FE000B0903703C0904203D0904303E0904403F0904503A7019601C501B4010E94E31C52
:202000001816BCF4C0923403D0923503E0923603F09237031EC020E030E0A901C701B60141
:202020000E945D1B87FFD6CF188219821A821B82D1CFC0903E03D0903F03E0904003F090E7
:202040004103A7019601C501B4010E945D1B87FDD9CF84E690E090933D0380933C0310920B
:2020600029031092280380E090E0A0E7B2E48093100390931103A0931203B093130340E05C
:2020800050E067E873E4409314035093150360931603709317034DEC5CEC6CE070E4409368
:2020A00018035093190360931A0370931B0380931C0390931D03A0931E03B0931F0380E047
:2020C00090E0A8EDB1E48093200390932103A0932203B093230380E090E0A0EBB1E4809325
:2020E000240390932503A0932603B09327030E940C0700913C0310913D03012E000C220BD7
:20210000330B601B710B820B930B609330037093310380933203909333031092460388E00E
:2021200093E090932D0380932C038CE093E090932B0380932A0387E493E090932F038093E1
:202140002E038AE999E9A9E1BFE38093000390930103A0930203B093030380E090E0A0E01F
:20216000BFE38093040390930503A0930603B093070385E090E09093F3028093F20286E095
:2021800090E09093F5028093F40287E090E09093F7028093F6028AE090E09093F9028093A3
:2021A000F80289E090E09093FB028093FA0288E090E09093FD028093FC0285E00E94F30414
:2021C0008091F4020E94F3048091F6020E94F3048091F8020E94F3048091FA020E94F30473
:2021E0008091FC02DF91CF911F910F91FF90EF90DF90CF90BF90AF909F908F900C94F30461
:20220000CF93DF93CDB7DEB7CE5AD1090FB6F894DEBF0FBECDBF789484B5826084BD84B5E7
:20222000816084BD85B5826085BD85B5816085BD80916E00816080936E00109281008091AC
:20224000810082608093810080918100816080938100809180008160809380008091B100B9
:2022600084608093B1008091B00081608093B00080917A00846080937A0080917A008260E8
:2022800080937A0080917A00816080937A0080917A00806880937A001092C10010929B0117
:2022A00010929A0110922602109248020E9473078CE197E090939901809398018DE197E0DD
:2022C000909397018093960188E18093B80001E023E042E06BE6809167030E947E0C00E087
:2022E00022E044E06BE1809167030E947E0C22E044E06CE1809167030E947E0C20E046E085
:202300006BE6809167030E94280B21E047E06BE6809167030E94280B6EE170E080E090E0E4
:202320000E94DA0620E046E06BE6809167030E94280B40E76DE6809167030E947F0986E0CF
:202340000E948F0908EE13E028E633E041E06FE6809167030E94A70940E06DE68091670308
:202360000E947F099E012F5F3F4F41E060E0809167030E94A709898181708093680328EEBB
:2023800033E048E653E060E0809167030E945C0C7090680328EE33E048E653E061E08091BD
:2023A00067030E945C0C8090680328EE33E048E653E062E0809167030E945C0C9090680352
:2023C0004FE765E2809167030E947F0920E045E06AE6809167030E94280B48E665E2809190
:2023E00067030E947F0921E041E06AE6809167030E94280B64E170E080E090E00E94DA06A0
:2024000001E020E040E069E877E085E891E00E94770B11E0882309F441C088E090E00E94FD
:20242000C21D7C0110E000E0F801EB53FF4F6490F801EA53FF4F5490680123E0C20ED11C66
:20244000F801E953FF4FE491EE2309F4CCC0AE2EB12CE33028F0B501C7010E94E71E7C0164
:20246000D70190E080E008531F4FF801E80FF91FE491ED9301968A159B05B8F300E0252D3B
:20248000462DB501C7010E94770B86010A0D1B1D8111B8C0C7010E945E1E12E010939C012F
:2024A000809167032CED30E0CB56DF4F39832883C559D040AE014B565F4F63E10E9428097F
:2024C000809167032CE430E0CD56DF4F39832883C359D040AE014D565F4F65E10E94280964
:2024E000809167032BEA3FEFCF56DF4F39832883C159D040AE014F565F4F67E10E9428091D
:20250000809167032CEF36E0CF57DF4F39832883C158D040AE014F575F4F6AE00E9428090B
:20252000111131C521E047E06AE6809167030E94280B88E197E09093010180930001809191
:202540006900836080936900E89A0E94620B8093E90181E08093EF018091690390916A03B6
:202560009093EB018093EA018091460300912C0310912D038111B9C2F801C080D180E2806A
:20258000F380C0923403D0923503E0923603F0923703E0912A03F0912B0380819181A281BB
:2025A000B3818093380390933903A0933A03B0933B038090420390904303A0904403B090D7
:2025C0004503A5019401C701B6010E94E31C18160CF07BC28092340390923503A0923603E3
:2025E000B092370382C20C5F1F4FF601EB53FF4FE49180916703E13009F04CCF42E368E33A
:202600000E947F09003C110508F40ECFC7010E945E1E03E023E042E06BE6809167030E9409
:202620007E0C42E168E3809167030E947F0944E069E1809167030E947F0901E023E045E0E1
:202640006AE1809167030E947E0C03E023E042E06AE1809167030E947E0C22E044E06BE11C
:20266000809167030E947E0C43E060E7809167030E947F0940E061E7809167030E947F0997
:2026800020E040E060E0809167030E94280B072D26E046E060E0809167030E947E0C082D0E
:2026A00026E046E061E0809167030E947E0C092D26E046E062E0809167030E947E0CF12C9E
:2026C000E12CF701EA56FF4FE491A1E8B0E0AC0FBD1FAE0DB11DEC9381E08E0D9FEFE91AAD
:2026E000F90AA3E0AE1568F7CD57DF4F6881C358D04070E09B012E5F3F4F8217130609F317
:2027000004F300E0CE57DF4F2881C258D040CF57DF4F4881C158D04081E890E08C0F9D1F46
:2027200003960E94770B80E0F701EA56FF4FE491A1E8B0E0AC0FBD1FA80FB11DEC938F5FDF
:20274000BFEFEB1AFB0A282F30E0843068F3CD57DF4F6881C358D04070E0AB014E5F5F4F8E
:20276000421753070CF700E0CE57DF4F2881C258D040CF57DF4F4881C158D04081E890E07E
:202780008C0F9D1F03960E94770B0E945B0B0E94430C682FCE0101960E94350C42E06FE1DA
:2027A000809167030E947F094CE961E2809167030E947F0940E560E2809167030E947F094B
:2027C00040E062E2809167030E947F090E945B0B21E046E06AE6809167030E94280B21E020
:2027E00047E06AE6809167030E94280B21E043E06AE6809167030E94280B80E0F701EA56B6
:20280000FF4FE491A1E8B0E0AC0FBD1FA80FB11DEC938F5FEFEFEE1AFE0A282F30E084304A
:2028200068F3CD57DF4F6881C358D04070E0AB014E5F5F4F421753070CF700E0CE57DF4F97
:202840002881C258D040CF57DF4F4881C158D04081E890E08C0F9D1F03960E94770B80E012
:20286000F701EA56FF4FE491A1E8B0E0AC0FBD1FA80FB11DEC938F5FFFEFEF1AFF0A282F64
:2028800030E0843068F3CD57DF4F6881C358D04070E0AB014E5F5F4F421753070CF700E0C6
:2028A000CE57DF4F2881C258D040CF57DF4F4881C158D04081E890E08C0F9D1F03960E9441
:2028C000770B80E0F701EA56FF4FE491A1E8B0E0AC0FBD1FA80FB11DEC938F5F2FEFE21A5F
:2028E000F20A282F30E0843068F3CD57DF4F6881C358D04070E0AB014E5F5F4F42175307F6
:202900000CF700E0CE57DF4F2881C258D040CF57DF4F4881C158D04081E890E08C0F9D1F38
:2029200003960E94770B0E94430C83309105D8F3682FCE0101960E94350C0E94620B80E086
:20294000F701EA56FF4FE491A1E8B0E0AC0FBD1FA80FB11DEC938F5F9FEFE91AF90A282FEF
:2029600030E0843068F3CD57DF4F3880C358D040A32CB12CA5014E5F5F4F4217530704F7A8
:20298000CE57DF4F5880C258D040CF57DF4F2880C158D040422D4F716DE6809167030E941E
:2029A0007F09852D0E948F09D12CC12C812C99249394B1E86B2E712C6C0E7D1EA3E06A0E49
:2029C000711CCA14DB0488F5C6014096432C4C18A816B90610F0F0E14F2EC40185199109F8
:2029E0004816190619F014F0452C419493012C0D3D1D08EE13E0442D6FE6809167030E9414
:202A0000A709C40CD11C540CCA14DB04D0F6511001C02394422D4F716DE6809167030E94EE
:202A20007F09852D0E948F09CCCF0E94430C83309105D8F3682FCE0101960E94350C0E9400
:202A4000620BF701EA56FF4F80E09491A1E8B0E0AC0FBD1FA80FB11D9C938F5F282F30E045
:202A6000843060F0CD57DF4F6881C358D04070E0AB014E5F5F4F4217530714F03196E5CF63
:202A800000E0CE57DF4F2881C258D040CF57DF4F4881C158D04081E890E08C0F9D1F039621
:202AA0000E94770B20E047E06AE6809167030E94280B8AE290E090936A03809369030E949E
:202AC0005B0B0E94620B10E0E9CC80903E0390903F03A0904003B0904103A5019401C7012F
:202AE000B6010E945D1B87FD75CD81E08093460360913C0370913D03072E000C880B990B99
:202B00000E940C1C9B01AC0160E070E080E291E40E94621B6B017C01AC019B0160912003D6
:202B20007091210380912203909123030E94F01C6093200370932103809322039093230387
:202B4000A7019601609124037091250380912603909127030E94621B60932403709325030C
:202B600080932603909327038AE090E090933D0380933C03C12CD12C7FE7E72E73ECF72E54
:202B8000C0923E03D0923F03E0924003F0924103412C512CEFE76E2EE3E47E2E409242039D
:202BA000509243036092440370924503D8018D909D90AD90BC90A3019201C501B4010E946A
:202BC000E31C181634F5F80140825182628273828090340390903503A0903603B0903703B6
:202BE000C0904203D0904303E0904403F0904503A7019601C501B4010E94E31C1816D4F4CA
:202C0000C0923403D0923503E0923603F092370321C020E030E04FE753ECC501B4010E94A7
:202C20005D1B87FFD5CFD801CD92DD92ED92FC921397CECFC0903E03D0903F03E090400311
:202C4000F0904103A7019601C501B4010E945D1B87FDD6CF8091EF01882309F4F8C1809140
:202C6000EE018111DCC12091EC013091ED018091EA019091EB012817390708F0D0C18091C7
:202C80004603882309F4F7C00E940C07C956DF4F688379838A839B83C759D0408091300304
:202CA00090913103A0913203B0913303C956DF4F488159816A817B81C759D040481B590B14
:202CC0006A0B7B0B80913C0390913D03092E000CAA0BBB0B481759076A077B0708F4CBC051
:202CE000E0912A03F0912B0380809180A280B380E0912E03F0912F03A501940160817181BE
:202D0000828193810E947E1A2B013C01209120033091210340912203509123030E94F01C95
:202D2000209134033091350340913603509137030E947F1A6B017C01C0923403D092350346
:202D4000E0923603F092370310914203009143033090440320904503212F302F432D522DB2
:202D60000E94E31C18160CF029C1812F902FA32DB22D8093340390933503A0933603B0932C
:202D8000370320911C0330911D0340911E0350911F03C301B2010E94F01C20913403309185
:202DA000350340913603509137030E947F1A6B017C01209138033091390340913A035091BA
:202DC0003B03C501B4010E947E1A209124033091250340912603509127030E94F01C9B01F0
:202DE000AC01C701B6010E947E1A6B017C019B01AC01612F702F832D922D0E945D1B87FDFF
:202E000016C010913E0300913F033090400320904103212F302F432D522DB601C7010E9471
:202E20005D1B87FD04C01C2D0D2D3E2C2F2CE0912C03F0912D03812F902FA32DB22D808318
:202E40009183A283B3838092380390923903A0923A03B0923B03C956DF4F88819981AA81CE
:202E6000BB81C759D0408093300390933103A0933203B0933303609108037091090380914E
:202E80000A0390910B030E94D41B77FFB8C0633E9FEF790714F062EE7FEF8B0161307F4F1B
:202EA00014F401E01FEFAA24AA94BA2C8091FE029091FF028017910709F4D1CE780117FF9C
:202EC00004C0EE24FF24E01AF10ABEE1EB16F1041CF44EE1E42EF12CCC24C394101611067D
:202EE0000CF0C12C6C2D8091F4020E940D06DD24D394101611060CF4D12C6D2D8091F6024F
:202F00000E940D066C2D8091FA020E940D066D2D8091FC020E940D06B7010F2C000C880BB1
:202F2000990B0E940C1C2B013C01209100033091010340910203509103030E94F01C0E9434
:202F4000D41B8091F2020E94590620910403309105034091060350910703C301B2010E941D
:202F6000F01C0E94D41B8091F8020E945906EA9CC001EB9C900DFA9C900D11249093FF02B1
:202F80008093FE026CCE80E199E00E94BE0519A2105D18A3BE01605E7F4FFB0101900020CA
:202FA000E9F73197AF01461B570B89E492E00E941F078EE099E00E9495094CCE80913E03BC
:202FC00090913F03A0914003B0914103C556DF4F88839983AA83BB83CB59D0409C01AD013B
:202FE000C701B6010E945D1B87FFCBCEC556DF4F88819981AA81BB81CB59D040BACE8B01FE
:203000006E31710514F40EE110E00F3F110519F014F00FEF10E0AA24A394B12C47CF1092BB
:20302000EE010E94620B182F8093E9010E94430C9093ED018093EC0114FD03C0811594400E
:2030400099F40E945B0B81E399E00E94950980E090E0892B09F4FECD0E94F905882309F42A
:20306000F9CD0E940000F6CD11FFF1CF0091EC011091ED01E090EA01F090EB010E151F053A
:2030800038F40E94430C9093ED018093EC01EECF6E2D89EA91E00E94350C0E191F091093F1
:2030A000ED010093EC018090AD01682D70E0762F66278090AE01860E972E911CA090B10126
:2030C0006A2D70E0762F6627A090B201A60EB72EB11C0091B501602F70E0762F66270091A5
:2030E000B601060F172F111D6091A901862F90E0982F88276091AA01680F792F711D072EDC
:20310000000C880B990B0E940C1C20E030E040E858E30E94F01C6B017C01C0925703D0928A
:203120005803E0925903F0925A03B401990C880B990B0E940C1C20E030E040E858E30E9417
:20314000F01C2B013C0140925B0350925C0360925D0370925E03B501BB0C880B990B0E947E
:203160000C1C20E030E040E858E30E94F01CC956DF4F688379838A839B83C759D040609384
:203180005F03709360038093610390936203B801110F880B990B0E940C1C20E030E040E856
:2031A00058E30E94F01CC556DF4F688379838A839B83CB59D04060936303709364038093C1
:2031C0006503909366039B01AC01C301B2010E94F01C4B015C01C956DF4F288139814A8169
:2031E0005B81C759D040C701B6010E94F01C9B01AC01C501B4010E947E1A9B01AC010E94AD
:203200007F1AC156DF4F688379838A839B83CF59D04060934B0370934C0380934D0390936D
:203220004E03A3019201C701B6010E94F01C4B015C01C556DF4F288139814A815B81CB59B9
:20324000D040C956DF4F688179818A819B81C759D0400E94F01C9B01AC01C501B4010E94C3
:203260007F1A9B01AC010E947F1ACD55DF4F688379838A839B83C35AD04060934F0370935A
:2032800050038093510390935203A7019601C701B6010E94F01C4B015C01A3019201C301EC
:2032A000B2010E94F01C9B01AC01C501B4010E947E1A4B015C01C956DF4F288139814A818B
:2032C0005B81C759D040CA01B9010E94F01C9B01AC01C501B4010E947E1A4B015C01C556ED
:2032E000DF4F288139814A815B81CB59D040CA01B9010E94F01C9B01AC01C501B4010E94C9
:203300007F1A4B015C018092530390925403A0925503B0925603A7019601C701B6010E9405
:203320007F1AC955DF4F688379838A839B83C75AD040A3019201C301B2010E947F1AC55562
:20334000DF4F688379838A839B83CB5AD040A7019601C955DF4F688179818A819B81C75A42
:20336000D0400E94F01C6B017C01A3019201C555DF4F688179818A819B81CB5AD0400E9446
:20338000F01C9B01AC01C701B6010E947F1A20E030E040E85FE30E947E1A6B017C01C95662
:2033A000DF4F288139814A815B81C759D040C555DF4F688179818A819B81CB5AD0400E947C
:2033C000F01C2B013C01C556DF4F288139814A815B81CB59D040C955DF4F688179818A81B7
:2033E0009B81C75AD0400E94F01C9B01AC01C301B2010E947E1AA70196010E94FE1A6093EC
:203400009D0170939E0180939F019093A001A5019401C501B4010E94F01C4B015C01CD55C6
:20342000DF4F288139814A815B81C35AD040CA01B9010E94F01CA50194010E947F1A0E94DC
:20344000631D9B01AC01C156DF4F688179818A819B81CF59D0400E94621B0E942E1B6B01A6
:203460007C01C092A101D092A201E092A301F092A401C156DF4F288139814A815B81CF5922
:20348000D040CA01B9010E94F01CA50194010E947F1A0E94631D9B01AC01CD55DF4F6881CF
:2034A00079818A819B81C35AD0400E94621B0E942E1B6093A5017093A6018093A701909393
:2034C000A80120E030E044E353E4C701B6010E94F01C2BED3FE049E450E40E94621B20E0F1
:2034E00030E044E353E40E947F1A60930C0370930D0380930E0390930F03A9CD5058BB27B5
:20350000AA270E94961A0C94A91C0E949B1C38F00E94A21C20F039F49F3F19F426F40C9460
:20352000711C0EF4E095E7FB0C946B1CE92F0E94BA1C58F3BA17620773078407950720F0B8
:2035400079F4A6F50C94DC1C0EF4E0950B2EBA2FA02D0B01B90190010C01CA01A001112460
:20356000FF27591B99F0593F50F4503E68F11A16F040A22F232F342F4427585FF3CF4695C0
:2035800037952795A795F0405395C9F77EF41F16BA0B620B730B840BBAF09150A1F0FF0F7F
:2035A000BB1F661F771F881FC2F70EC0BA0F621F731F841F48F4879577956795B795F79531
:2035C0009E3F08F0B0CF9395880F08F09927EE0F9795879508950E949B1C60F080E891E0BC
:2035E00009F49EEF0E94A21C28F040E851E071F45EEF0CC00C94711C0C94DC1CE92FE078BD
:203600000E94BA1C40F3092E052AB1F3261737074807590738F00E2E07F8E02569F0E02505
:20362000E0640AC0EF6307F8009407FADB01B9019D01DC01CA01AD01EF930E94791B0E94B2
:20364000A91C0E942E1B5F91552339F02BED3FE049E450FD49EC0C947F1A0895DF93DD27F7
:20366000B92FBF7740E85FE31616170648075B0718F4D92F0E94E81C9F938F937F936F93A6
:203680000E94A31DE8E6F0E00E94741C0E94A91C2F913F914F915F910E94031DDD2351F02E
:2036A0009058A2EA2AED3FE049EC5FE3D0785D270E94961ADF910C94A91C0E94471C08F4F5
:2036C00081E008950E94761B0C94A91C0E94A21C58F00E949B1C40F029F45F3F29F00C94AF
:2036E0006B1C51110C94DD1C0C94711C0E94BA1C68F39923B1F3552391F3951B550BBB27FA
:20370000AA2762177307840738F09F5F5F4F220F331F441FAA1FA9F335D00E2E3AF0E0E808
:2037200032D091505040E695001CCAF72BD0FE2F29D0660F771F881FBB1F26173707480747
:20374000AB07B0E809F0BB0B802DBF01FF2793585F4F3AF09E3F510578F00C946B1C0C94A8
:20376000DD1C5F3FE4F3983ED4F3869577956795B795F7959F5FC9F7880F911D96958795F9
:2037800097F90895E1E0660F771F881FBB1F621773078407BA0720F0621B730B840BBA0B11
:2037A000EE1F88F7E09508950E94DB1B6894B1110C94DD1C08950E94C21C88F09F5798F069
:2037C000B92F9927B751B0F0E1F0660F771F881F991F1AF0BA95C9F714C0B13091F00E946D
:2037E000DC1CB1E008950C94DC1C672F782F8827B85F39F0B93FCCF3869577956795B395BD
:20380000D9F73EF490958095709561957F4F8F4F9F4F0895E89409C097FB3EF490958095F7
:20382000709561957F4F8F4F9F4F9923A9F0F92F96E9BB279395F695879577956795B795F2
:20384000F111F8CFFAF4BB0F11F460FF1BC06F5F7F4F8F4F9F4F16C0882311F096E911C06E
:20386000772321F09EE8872F762F05C0662371F096E8862F70E060E02AF09A95660F771FF6
:20388000881FDAF7880F9695879597F90895990F0008550FAA0BE0E8FEEF16161706E807EF
:2038A000F907C0F012161306E407F50798F0621B730B840B950B39F40A2661F0232B242B33
:2038C000252B21F408950A2609F4A140A6958FEF811D811D089597F99F6780E870E060E0B8
:2038E00008959FEF80EC0895DF93CF931F930F93FF92EF92DF927B018C01689406C0DA2E16
:20390000EF010E94031DFE01E894A5912591359145915591A6F3EF010E94961AFE0197019A
:20392000A801DA9469F7DF90EF90FF900F911F91CF91DF91089500240A94161617061806AD
:203940000906089500240A9412161306140605060895092E0394000C11F4882352F0BB0F60
:2039600040F4BF2B11F460FF04C06F5F7F4F8F4F9F4F089557FD9058440F551F59F05F3F12
:2039800071F04795880F97FB991F61F09F3F79F087950895121613061406551FF2CF46954D
:2039A000F1DF08C0161617061806991FF1CF86957105610508940895E894BB2766277727D7
:2039C000CB0197F908950E94471C08F48FEF08959B01AC0160E070E080E89FE30C94621BF2
:2039E0000E94031D0C94A91C0E949B1C38F00E94A21C20F0952311F00C946B1C0C94711CA2
:203A000011240C94DD1C0E94BA1C70F3959FC1F3950F50E0551F629FF001729FBB27F00DEB
:203A2000B11D639FAA27F00DB11DAA1F649F6627B00DA11D661F829F2227B00DA11D621F5B
:203A4000739FB00DA11D621F839FA00D611D221F749F3327A00D611D231F849F600D211D22
:203A6000822F762F6A2F11249F5750409AF0F1F088234AF0EE0FFF1FBB1F661F771F881F95
:203A800091505040A9F79E3F510580F00C946B1C0C94DD1C5F3FE4F3983ED4F38695779579
:203AA0006795B795F795E7959F5FC1F7FE2B880F911D9695879597F9089519F416F40C9467
:203AC000711C0C94A71D0E94C21CB8F39923C9F3B6F39F57550B87FF0E94B51D0024A0E6AF
:203AE00040EA900180585695979528F4805C660F771F881F20F026173707480730F4621BF7
:203B0000730B840B202931294A2BA69517940794202531254A2758F7660F771F881F20F0E2
:203B200026173707480730F4620B730B840B200D311D411DA09581F7B901842F9158880FAA
:203B40009695879508959B01AC010C94F01C9F3F31F0915020F4879577956795B795880F91
:203B6000911D9695879597F9089591505040660F771F881FD2F70895EE0FFF1F0590F49165
:203B8000E02D09940F931F93CF93DF938230910510F482E090E0E0917C03F0917D0330E034
:203BA00020E0B0E0A0E0309799F42115310509F44AC0281B390B24303105D8F58A819B8129
:203BC0006115710589F1FB0193838283FE0111C0408151810281138148175907E0F0481700
:203BE000590799F4109761F012960C93129713961C933296CF01DF91CF911F910F91089543
:203C000000937C0310937D03F4CF2115310551F04217530738F0A901DB019A01BD01DF0165
:203C2000F801C1CFEF01F9CF90937D0380937C03CDCFFE01E20FF31F81939193225031098C
:203C400039832883D7CF20917A0330917B03232B41F4209106013091070130937B032093F2
:203C60007A0320910401309105012115310541F42DB73EB74091080150910901241B350B8C
:203C8000E0917A03F0917B03E217F307A0F42E1B3F0B2817390778F0AC014E5F5F4F2417F3
:203CA000350748F04E0F5F1F50937B0340937A03819391939FCFF0E0E0E09CCFCF93DF938F
:203CC0000097E9F0FC01329713821282A0917C03B0917D03ED0130E020E01097A1F4208139
:203CE0003181820F931F20917A0330917B032817390709F061C0F0937B03E0937A03DF9168
:203D0000CF910895EA01CE17DF07E8F54A815B819E0141155105B1F7E901FB83EA834991CA
:203D20005991C40FD51FEC17FD0761F4808191810296840F951FE90199838883828193815C
:203D40009B838A83F0E0E0E012968D919C9113970097B9F52D913C911197CD010296820F9C
:203D6000931F20917A0330917B032817390739F6309751F510927D0310927C03B0937B0365
:203D8000A0937A03BCCFD383C28340815181840F951FC817D90761F44E5F5F4F88819981E1
:203DA000480F591F518340838A819B81938382832115310509F0B0CFF0937D03E0937C0382
:203DC0009ECFFD01DC01C0CF13821282D7CFB0E0A0E0EDEEFEE10C94BC1F8C01009751F48F
:203DE000CB010E94C21D8C01C801CDB7DEB7E0E10C94D81FFC01E60FF71F9C01225031095E
:203E0000E217F30708F49DC0D901CD91DC911197C617D70798F0C530D10530F3CE0104976E
:203E20008617970708F3C61BD70B2297C193D1936D937C93CF010E945E1ED6CF5B01AC1A54
:203E4000BD0A4C018C0E9D1EA0917C03B0917D03512C412CF12CE12C109731F580917A0319
:203E600090917B038815990509F05CC04616570608F058C08091040190910501009741F481
:203E80008DB79EB74091080150910901841B950BE817F90708F055C0F0937B03E0937A0388
:203EA000F90171836083A0CF8D919C91119712966C90129713967C901397A815B90559F55A
:203EC0006C0142E0C40ED11CCA14DB0420F1AC014A195B09DA011296159780F062827382DA
:203EE00051834083D9016D937C93E114F10471F0D7011396FC93EE93129776CF22968C0F25
:203F00009D1FF90191838083F301EFCFF0937D03E0937C0369CF4816590608F42C017D0191
:203F2000D3019ACFCB010E94C21D7C01009749F0AE01B8010E94B11FC8010E945E1E870161
:203F400053CF10E000E050CFFB01DC0104C08D910190801921F441505040C8F7881B990B2F
:203F60000895FB01DC0102C001900D9241505040D8F708952F923F924F925F926F927F92D6
:203F80008F929F92AF92BF92CF92DF92EF92FF920F931F93CF93DF93CDB7DEB7CA1BDB0B4D
:203FA0000FB6F894DEBF0FBECDBF09942A88398848885F846E847D848C849B84AA84B9846A
:203FC000C884DF80EE80FD800C811B81AA81B981CE0FD11D0FB6F894DEBF0FBECDBFED01BD
:203FE0000895F894FFCF1E071E0700007E0380000000000071051F071205D9054305210580
:20400000350500000000F908CC084C09A208C508B208A3080D0A0000FFFFFFFFFFFFFFFF51
:20402000FFFFFFFFFFFFFFFFFFFFFFFFFFFFFFFFFFFFFFFFFFFFFFFFFFFFFFFFFFFFFFFFA0
:20404000FFFFFFFFFFFFFFFFFFFFFFFFFFFFFFFFFFFFFFFFFFFFFFFFFFFFFFFFFFFFFFFF80
:20406000FFFFFFFFFFFFFFFFFFFFFFFFFFFFFFFFFFFFFFFFFFFFFFFFFFFFFFFFFFFFFFFF60
:2040800085200E94A01FB8F39923C9F3B6F39F57550B87FF0E9493200024A0E640EA9001B8
:2040A00080585695979528F4805C660F771F881F20F026173707480730F4621B730B840BDF
:2040C000202931294A2BA69517940794202531254A2758F7660F771F881F20F026173707AF
:2040E000480730F4620B730B840B200D311D411DA09581F7B901842F9158880F9695879519
:2041000008959B01AC010C94CE1F9F3F31F0915020F4879577956795B795880F911D969558
:20412000879597F9089591505040660F771F881FD2F70895EE0FFF1F0590F491E02D0994CE
:204140000F931F93CF93DF938230910510F482E090E0E091F303F091F40330E020E0B0E09A
:20416000A0E0309799F42115310509F44AC0281B390B24303105D8F58A819B816115710507
:2041800089F1FB0193838283FE0111C0408151810281138148175907E0F04817590799F439
:2041A000109761F012960C93129713961C933296CF01DF91CF911F910F9108950093F303E1
:2041C0001093F403F4CF2115310551F04217530738F0A901DB019A01BD01DF01F801C1CFB2
:2041E000EF01F9CF9093F4038093F303CDCFFE01E20FF31F819391932250310939832883FB
:20420000D7CF2091F1033091F203232B41F420910801309109013093F2032093F103209185
:204220000601309107012115310541F42DB73EB740910A0150910B01241B350BE091F10387
:20424000F091F203E217F307A0F42E1B3F0B2817390778F0AC014E5F5F4F2417350748F030
:204260004E0F5F1F5093F2034093F103819391939FCFF0E0E0E09CCFCF93DF930097E9F0DF
:20428000FC01329713821282A091F303B091F403ED0130E020E01097A1F420813181820FB2
:2042A000931F2091F1033091F2032817390709F061C0F093F203E093F103DF91CF9108950C
:2042C000EA01CE17DF07E8F54A815B819E0141155105B1F7E901FB83EA8349915991C40F45
:2042E000D51FEC17FD0761F4808191810296840F951FE90199838883828193819B838A8329
:20430000F0E0E0E012968D919C9113970097B9F52D913C911197CD010296820F931F20919E
:20432000F1033091F2032817390739F6309751F51092F4031092F303B093F203A093F10388
:20434000BCCFD383C28340815181840F951FC817D90761F44E5F5F4F88819981480F591FFC
:20436000518340838A819B81938382832115310509F0B0CFF093F403E093F3039ECFFD0132
:20438000DC01C0CF13821282D7CFB0E0A0E0EBECF1E20C949A228C01009751F4CB010E94F5
:2043A000A0208C01C801CDB7DEB7E0E10C94B622FC01E60FF71F9C0122503109E217F30751
:2043C00008F49DC0D901CD91DC911197C617D70798F0C530D10530F3CE0104978617970761
:2043E00008F3C61BD70B2297C193D1936D937C93CF010E943C21D6CF5B01AC1ABD0A4C01D5
:204400008C0E9D1EA091F303B091F403512C412CF12CE12C109731F58091F1039091F203EC
:204420008815990509F05CC04616570608F058C08091060190910701009741F48DB79EB7BD
:2044400040910A0150910B01841B950BE817F90708F055C0F093F203E093F103F90171837B
:204460006083A0CF8D919C91119712966C90129713967C901397A815B90559F56C0142E0F3
:20448000C40ED11CCA14DB0420F1AC014A195B09DA011296159780F062827382518340830C
:2044A000D9016D937C93E114F10471F0D7011396FC93EE93129776CF22968C0F9D1FF90140
:2044C00091838083F301EFCFF093F403E093F30369CF4816590608F42C017D01D3019ACF57
:2044E000CB010E94A0207C01009749F0AE01B8010E948F22C8010E943C21870153CF10E024
:2045000000E050CFFB01DC0104C08D910190801921F441505040C8F7881B990B0895FB01E2
:20452000DC0102C001900D9241505040D8F708952F923F924F925F926F927F928F929F9257
:20454000AF92BF92CF92DF92EF92FF920F931F93CF93DF93CDB7DEB7CA1BDB0B0FB6F89488
:20456000DEBF0FBECDBF09942A88398848885F846E847D848C849B84AA84B984C884DF804A
:20458000EE80FD800C811B81AA81B981CE0FD11D0FB6F894DEBF0FBECDBFED01089514E011
:2045A000CEECD4E004C0FE010E949A202196CF3CD107C9F7F894FFCF3707370767000000D7
:2045C000F50380000000000058053807F904C0052A0508051C0500000000BD099009100A2F
:2045E0007D07890976096709000000007E073807100A7D07DA07F00765070D0A0000FFFFFB
:20460000FFFFFFFFFFFFFFFFFFFFFFFFFFFFFFFFFFFFFFFFFFFFFFFFFFFFFFFFFFFFFFFFBA
:20462000FFFFFFFFFFFFFFFFFFFFFFFFFFFFFFFFFFFFFFFFFFFFFFFFFFFFFFFFFFFFFFFF9A
:20464000FFFFFFFFFFFFFFFFFFFFFFFFFFFFFFFFFFFFFFFFFFFFFFFFFFFFFFFFFFFFFFFF7A
:20466000FFFFFFFFFFFFFFFFFFFFFFFFFFFFFFFFFFFFFFFFFFFFFFFFFFFFFFFFFFFFFFFF5A
:207E0000112484B714BE81FFF0D085E08093810082E08093C00088E18093C10086E08093FC
:207E2000C20080E18093C4008EE0C9D0259A86E020E33CEF91E0309385002093840096BBAD
:207E4000B09BFECF1D9AA8958150A9F7CC24DD2488248394B5E0AB2EA1E19A2EF3E0BF2E79
:207E6000A2D0813461F49FD0082FAFD0023811F0013811F484E001C083E08DD089C0823404
:207E800011F484E103C0853419F485E0A6D080C0853579F488D0E82EFF2485D0082F10E0A0
:207EA000102F00270E291F29000F111F8ED068016FC0863521F484E090D080E0DECF84364D
:207EC00009F040C070D06FD0082F6DD080E0C81680E7D80618F4F601B7BEE895C0E0D1E0ED
:207EE00062D089930C17E1F7F0E0CF16F0E7DF0618F0F601B7BEE89568D007B600FCFDCF1A
:207F0000A601A0E0B1E02C9130E011968C91119790E0982F8827822B932B1296FA010C016F
:207F200087BEE89511244E5F5F4FF1E0A038BF0751F7F601A7BEE89507B600FCFDCF97BE85
:207F4000E89526C08437B1F42ED02DD0F82E2BD03CD0F601EF2C8F010F5F1F4F84911BD0B8
:207F6000EA94F801C1F70894C11CD11CFA94CF0CD11C0EC0853739F428D08EE10CD085E9AE
:207F80000AD08FE07ACF813511F488E018D01DD080E101D065CF982F8091C00085FFFCCF0A
:207FA0009093C60008958091C00087FFFCCF8091C00084FD01C0A8958091C6000895E0E68F
:207FC000F0E098E1908380830895EDDF803219F088E0F5DFFFCF84E1DECF1F93182FE3DF47
:207FE0001150E9F7F2DF1F91089580E0E8DFEE27FF270994FFFFFFFFFFFFFFFFFFFF040425
:00000001FF
