:100000000C94BB000C94E3000C94E3000C94E3000C
:100010000C94E3000C94E3000C94E3000C944C0368
:100020000C94E3000C94E3000C94E3000C94E300C4
:100030000C94E3000C94E3000C94E3000C94E300B4
:100040000C94AA020C94E3000C941A030C94F4028E
:100050000C94E3000C94E3000C94E3000C94E30094
:100060000C94E3000C94E3003D3D3D205465737413
:1000700020636F6D706C657461646F203D3D3D0061
:100080005072696D65726F732031362062797465C4
:100090007320656E203078363030303A0044657316
:1000A000707565733A203078004552524F523A20AD
:1000B0004573637269747572612066616C6C696402
:1000C0006100457363726974757261204F4B002E35
:1000D0002E2E0045736372696269656E646F2065D8
:1000E0006E20307800416E7465733A20202030789D
:1000F00000426F6F746C6F616465722040203078CD
:10010000374530302028656E747279293A00426F85
:100110006F746C6F616465722040203078374630B0
:1001200030202866696C6C2B777269746520676172
:1001300064676574293A00426F6F746C6F6164651F
:100140007220402030783746333220286572617340
:100150006520676164676574293A003D3D3D204232
:100160006F6F744A61636B65722054657374203DD0
:100170003D3D0000EF0411241FBECFEFD8E0DEBFED
:10018000CDBF11E0A0E0B1E0EAE9FAE002C00590DD
:100190000D92A631B107D9F721E0A6E1B1E001C087
:1001A0001D92AC3BB207E1F710E0CBEBD0E004C00E
:1001B0002197FE010E943E05CA3BD107C9F70E9464
:1001C00058030C944B050C940000AF92BF92CF9251
:1001D000DF92EF92FF920F931F93CF93DF936C0107
:1001E0007B018B01040F151FEB015E01AE18BF08E8
:1001F000C017D10759F06991D601ED91FC9101909A
:10020000F081E02DC6010995892B79F7C501DF91B1
:10021000CF911F910F91FF90EF90DF90CF90BF9003
:10022000AF900895FC01538D448D252F30E0842F2D
:1002300090E0821B930B541710F0CF96089501970E
:100240000895FC01918D828D981761F0A28DAE0FFB
:10025000BF2FB11D5D968C91928D9F5F9F73928F82
:1002600090E008958FEF9FEF0895FC01918D828DAE
:10027000981731F0828DE80FF11D858D90E008957B
:100280008FEF9FEF0895FC01918D228D892F90E0D3
:10029000805C9F4F821B91098F73992708958FE18E
:1002A00091E00E94430121E0892B09F420E0822F94
:1002B000089580E090E0892B29F00E944F01811180
:1002C0000C9400000895FC01A48DA80FB92FB11D56
:1002D000A35ABF4F2C91848D90E001968F7399277C
:1002E000848FA689B7892C93A089B1898C9183705A
:1002F00080648C93938D848D981306C00288F38953
:10030000E02D80818F7D80830895EF92FF920F937F
:100310001F93CF93DF93EC0181E0888F9B8D8C8DB1
:1003200098131AC0E889F989808185FF15C09FB7A5
:10033000F894EE89FF896083E889F9898081837068
:10034000806480839FBF81E090E0DF91CF911F9117
:100350000F91FF90EF900895F62E0B8D10E00F5F38
:100360001F4F0F731127E02E8C8D8E110CC00FB60E
:1003700007FCFACFE889F989808185FFF5CFCE01A6
:100380000E946301F1CFEB8DEC0FFD2FF11DE35ABD
:10039000FF4FF0829FB7F8940B8FEA89FB89808129
:1003A0008062CFCF682F8FE191E00C9485010F938D
:1003B0001F93CF93DF938C01D0E0C0E0F801EC0FE6
:1003C000FD1F6491662341F08FE191E00E94850159
:1003D000892B11F02196F2CFCE01DF91CF911F91A1
:1003E0000F910895CF93DF93EC01888D8823B9F0A6
:1003F000AA89BB89E889F9898C9185FD03C0808130
:1004000086FD0DC00FB607FCF7CF8C9185FFF2CFAC
:10041000808185FFEDCFCE010E946301E9CFDF919E
:10042000CF91089582E08093B000E1EBF0E010827C
:100430001092B2009AEF9093B30087BB8093700044
:1004400087E0808308958F929F92AF92BF920F931F
:100450001F93CF93DF93CDB7DEB7A1970FB6F89474
:10046000DEBF0FBECDBF19A2423008F44AE08E01B4
:100470000F5D1F4F842E912CB12CA12CA50194014E
:100480000E941C05E62FB901CA01EA3044F5E05D7F
:10049000D801EE938D01232B242B252B79F790E0A7
:1004A00080E0109769F0FD0101900020E9F7319795
:1004B000AF014A1B5B0BBD018FE191E00E94E5009B
:1004C000A1960FB6F894DEBF0FBECDBFDF91CF91DE
:1004D0001F910F91BF90AF909F908F900895E95C0E
:1004E000D7CF42E050E062E171E08FE191E00C94FF
:1004F000E500CF93DF930E94D701EC010E947102C7
:100500008C0F9D1FDF91CF910895FF920F931F9342
:10051000CF93DF93082FF62EEC01FE0114911031DA
:1005200018F480E30E94D201612F70E090E080E037
:1005300040E10E94230280E20E94D20121968C2F8A
:10054000801B8F1550F3DF91CF911F910F91FF907A
:100550000C9471021F920F920FB60F9211242F93D9
:100560003F938F939F93AF93BF9380911B01909183
:100570001C01A0911D01B0911E0130911A0123E0D0
:10058000230F2D3758F50196A11DB11D20931A0197
:1005900080931B0190931C01A0931D01B0931E0139
:1005A0008091160190911701A0911801B091190145
:1005B0000196A11DB11D8093160190931701A09380
:1005C0001801B0931901BF91AF919F918F913F9105
:1005D0002F910F900FBE0F901F90189526E8230FB4
:1005E0000296A11DB11DD2CF1F920F920FB60F928E
:1005F00011242F933F934F935F936F937F938F9328
:100600009F93AF93BF93EF93FF938FE191E00E948D
:100610006301FF91EF91BF91AF919F918F917F9176
:100620006F915F914F913F912F910F900FBE0F905F
:100630001F9018951F920F920FB60F9211242F93AF
:100640008F939F93EF93FF93E0912F01F0913001EF
:100650008081E0913501F091360182FD1BC09081CF
:10066000809138018F5F8F7320913901821741F09B
:10067000E0913801F0E0E15EFE4F958F8093380104
:10068000FF91EF919F918F912F910F900FBE0F903F
:100690001F9018958081F4CF11241092B100109210
:1006A0007000E091BC01EDBFE091BD01EEBF189577
:1006B000CF93DF93CDB7DEB7C058D1090FB6F8940A
:1006C000DEBF0FBECDBF789484B5826084BD84B593
:1006D000816084BD85B5826085BD85B5816085BD3D
:1006E00080916E00816080936E00109281008091F5
:1006F000810082608093810080918100816080937D
:100700008100809180008160809380008091B100A1
:1007100084608093B1008091B00081608093B000CC
:1007200080917A00846080937A0080917A00826060
:1007300080937A0080917A00816080937A00809122
:100740007A00806880937A001092C100E0912F01B6
:10075000F091300182E08083E0912B01F0912C0137
:100760001082E0912D01F0912E0180E180831092A2
:100770003701E0913301F091340186E08083E0910C
:100780003101F0913201808180618083E0913101FB
:10079000F0913201808188608083E0913101F09195
:1007A0003201808180688083E0913101F0913201D3
:1007B00080818F7D80838BE591E00E9479020E9489
:1007C000710287E391E00E94790260E182E39FE792
:1007D0000E9485028EE091E00E94790260E180E053
:1007E0009FE70E94850281EF90E00E94790268E015
:1007F00080E09EE70E9485020E9471028FE191E0F5
:100800000E94F201E0E0F0E6149185EE90E00E9493
:10081000D701103118F480E30E94D201612F70E0FB
:1008200090E080E040E10E9423020E94710240E8D3
:1008300050E06FEF70E0CE0101960E94440587E022
:10084000898383ED90E00E94D70140E160E070E68B
:1008500080E090E00E9423028FEC90E00E947902F9
:100860008FE191E00E94F201FFB6E090C100B090EC
:100870006E0070906F00F8941092C10010926E009C
:1008800010926F000E94120200E010E6C02ED12EDE
:10089000EDB7E250E093BC01EEB7E040E093BD015C
:1008A000E3E0AE2EE1E19E2EE9E9FFE378940995BD
:1008B000F89480E8E0E0F1E0AEEBB1E001900D9259
:1008C0008A95E1F780E8FE013196A0E0B1E0019061
:1008D0000D928A95E1F70E941202C02ED12EEDB73B
:1008E000E250E093BC01EEB7E040E093BD01E1E0EF
:1008F0008E2EE5E0AE2EE1E19E2EE0E8FFE3789457
:100900000995F89480E8EEEBF1E0A0E0B1E0019009
:100910000D928A95E1F770926F00B0926E00E092AE
:10092000C100FFBEDE011196E0E0F0E694918D91EA
:10093000981352C03196E03880E6F807B9F782EC98
:1009400090E00E947902E0E0F0E614918DE990E0F9
:100950000E94D701103118F480E30E94D201612F68
:1009600070E090E080E040E10E9423020E9471026A
:100970000E94710280E890E00E94790200E010E697
:10098000F801F490FFE0FF1518F080E30E94D20117
:100990006F2D70E090E080E040E10E94230280E251
:1009A0000E94D2010F5F1F4F003180E6180741F708
:1009B0000E9471020E94710288E690E00E94790212
:1009C00000E010E001151105E9F30E944F018823B2
:1009D000C9F30E940000F6CF89EA90E0B2CFEFE1C0
:1009E000F1E01382128288EE93E0A0E0B0E084830D
:1009F0009583A683B78384E091E09183808385EC1F
:100A000090E09587848784EC90E09787868780ECD8
:100A100090E0918B808B81EC90E0938B828B82ECC9
:100A200090E0958B848B86EC90E0978B868B118E73
:100A3000128E138E148E0895A1E21A2EAA1BBB1BD0
:100A4000FD010DC0AA1FBB1FEE1FFF1FA217B3079A
:100A5000E407F50720F0A21BB30BE40BF50B661FB0
:100A6000771F881F991F1A9469F760957095809574
:100A700090959B01AC01BD01CF010895EE0FFF1FC2
:100A80000590F491E02D0994DC0101C06D93415073
:0A0A90005040E0F70895F894FFCFFE
:100A9A00000000008501E5001201F2014301210175
:060AAA0035010D0A0000F9
:00000001FF
