:020000040000FA
:100000000C9499000C94C1000C94C1000C94C10094
:100010000C94C1000C94C1000C94C1000C94C1005C
:100020000C94C1000C94C1000C94C1000C94C1004C
:100030000C94C1000C94C1000C94C1000C94C1003C
:100040000C945B030C94C1000C94CB030C94A5039B
:100050000C94C1000C94C1000C94C1000C94C1001C
:100060000C94C1000C94C100000000002400270083
:100070002A00424A3A52454144590050524F473AA9
:100080004E4558542000455845433A4155544F0079
:1000900050524F473A444F4E450050524F473A4511
:1000A0004D5054590050524F473A4C415354200040
:1000B00050524F473A5047200050524F473A52450E
:1000C00041445900464C41473D3078004A545B302A
:1000D0005D3D307800455845433A4E4F50524F47AA
:1000E00000455845433A474F0000000000250028CE
:1000F000002B0004040404040404040202020202AB
:1001000002030303030303010204081020408001DB
:10011000020408102001020408102000000008005A
:1001200002010000030407000000000000000000BE
:10013000110611241FBECFEFD8E0DEBFCDBF11E006
:10014000A0E0B1E0E2E1FDE002C005900D92A63131
:10015000B107D9F721E0A6E1B1E001C01D92AC3BA7
:10016000B207E1F710E0C9E9D0E004C02197FE0131
:100170000E947A06C839D107C9F70E94FD030C9482
:1001800087060C940000E8E2F1E02491E4E1F1E05C
:100190009491E0E0F1E0E491EE23C9F0222339F0FC
:1001A000233001F1A8F4213019F1223029F1F0E0D7
:1001B000EE0FFF1FE751FF4FA591B4912FB7F894B1
:1001C000EC91811126C090959E239C932FBF08959A
:1001D0002730A9F02830C9F0243049F72091800059
:1001E0002F7D03C0209180002F7720938000DFCFE8
:1001F00024B52F7724BDDBCF24B52F7DFBCF2091F5
:10020000B0002F772093B000D2CF2091B0002F7D87
:10021000F9CF9E2BDACF3FB7F89480911B019091D4
:100220001C01A0911D01B0911E0126B5A89B05C01F
:100230002F3F19F00196A11DB11D3FBFBA2FA92F65
:10024000982F8827BC01CD01620F711D811D911D62
:1002500042E0660F771F881F991F4A95D1F70895CE
:1002600081E00C94C30080E00C94C300AF92BF9275
:10027000CF92DF92EF92FF920F931F93CF93DF9372
:100280006C017B018B01040F151FEB015E01AE18A1
:10029000BF08C017D10759F06991D601ED91FC91C3
:1002A0000190F081E02DC6010995892B79F7C501F0
:1002B000DF91CF911F910F91FF90EF90DF90CF9042
:1002C000BF90AF900895FC01538D448D252F30E0F1
:1002D000842F90E0821B930B541710F0CF96089553
:1002E00001970895FC01918D828D981761F0A28D80
:1002F000AE0FBF2FB11D5D968C91928D9F5F9F7346
:10030000928F90E008958FEF9FEF0895FC01918DFB
:10031000828D981731F0828DE80FF11D858D90E068
:1003200008958FEF9FEF0895FC01918D228D892F05
:1003300090E0805C9F4F821B91098F7399270895ED
:100340008FE191E00E94940121E0892B09F420E0E3
:10035000822F089580E090E0892B29F00E94A0016F
:1003600081110C9400000895FC01A48DA80FB92FF1
:10037000B11DA35ABF4F2C91848D90E001968F73CD
:100380009927848FA689B7892C93A089B1898C91EC
:10039000837080648C93938D848D981306C002883B
:1003A000F389E02D80818F7D80830895EF92FF9205
:1003B0000F931F93CF93DF93EC0181E0888F9B8D88
:1003C0008C8D98131AC0E889F989808185FF15C042
:1003D0009FB7F894EE89FF896083E889F989808165
:1003E0008370806480839FBF81E090E0DF91CF9134
:1003F0001F910F91FF90EF900895F62E0B8D10E056
:100400000F5F1F4F0F731127E02E8C8D8E110CC0C4
:100410000FB607FCFACFE889F989808185FFF5CF0F
:10042000CE010E94B401F1CFEB8DEC0FFD2FF11D39
:10043000E35AFF4FF0829FB7F8940B8FEA89FB894C
:1004400080818062CFCF0F931F93CF93DF938C0176
:10045000D0E0C0E0F801EC0FFD1F6491662341F08D
:100460008FE191E00E94D601892B11F02196F2CF05
:10047000CE01DF91CF911F910F910895CF93DF931C
:10048000EC01888D8823B9F0AA89BB89E889F989AC
:100490008C9185FD03C0808186FD0DC00FB607FCE1
:1004A000F7CF8C9185FFF2CF808185FFEDCFCE0114
:1004B0000E94B401E9CFDF91CF9108958FE191E0DF
:1004C0000E949401892BD1F38FE191E00E94720187
:1004D00008958F929F92AF92BF92CF92DF92EF9248
:1004E000FF926B017C010E940B014B015C01C11466
:1004F000D104E104F104B9F00E940B0168197909F3
:100500008A099B09683E73408105910580F321E0CB
:10051000C21AD108E108F10888EE880E83E0981E1F
:10052000A11CB11CE4CFFF90EF90DF90CF90BF9063
:10053000AF909F908F900895E4E1F1E02491E0E086
:10054000F1E08491882399F090E0880F991FFC01D5
:10055000E859FF4FA591B491FC01E751FF4F8591F8
:1005600094918FB7F894EC91E22BEC938FBF0895A0
:100570008F929F92AF92BF920F931F93CF93DF936F
:10058000CDB7DEB7A1970FB6F894DEBF0FBECDBFD3
:1005900019A2423008F44AE08E010F5D1F4F842EED
:1005A000912CB12CA12CA50194010E945806E62F94
:1005B000B901CA01EA3044F5E05DD801EE938D013E
:1005C000232B242B252B79F790E080E0109769F0FE
:1005D000FD0101900020E9F73197AF014A1B5B0B49
:1005E000BD018FE191E00E943601A1960FB6F8940B
:1005F000DEBF0FBECDBFDF91CF911F910F91BF9096
:10060000AF909F908F900895E95CD7CF42E050E083
:1006100062E171E08FE191E00C943601CF93DF93BA
:10062000462F682F70E090E080E00E94B802EC0155
:100630000E9406038C0F9D1FDF91CF910895CF93E9
:10064000DF930E942302EC010E9406038C0F9D1F82
:10065000DF91CF910895EC01162F8FEE9EEB9093D2
:10066000BD018093BC0161EA90E080E00E944606F3
:100670006C2F81E090E00E9446066D2F82E090E0B2
:100680000E944606612F83E090E00E944606F8949F
:1006900088E198E00FB6F894A895809360000FBEAB
:1006A00090936000CC2EDD2EE3E0AE2EE1E19E2E95
:1006B000E9E9FFE309941F920F920FB60F921124FC
:1006C0002F933F938F939F93AF93BF938091170185
:1006D00090911801A0911901B0911A013091160161
:1006E00023E0230F2D3758F50196A11DB11D20934E
:1006F00016018093170190931801A0931901B093EC
:100700001A0180911B0190911C01A0911D01B091D3
:100710001E010196A11DB11D80931B0190931C0128
:10072000A0931D01B0931E01BF91AF919F918F9136
:100730003F912F910F900FBE0F901F90189526E8B4
:10074000230F0296A11DB11DD2CF1F920F920FB69B
:100750000F9211242F933F934F935F936F937F9347
:100760008F939F93AF93BF93EF93FF938FE191E0AC
:100770000E94B401FF91EF91BF91AF919F918F9132
:100780007F916F915F914F913F912F910F900FBE8D
:100790000F901F9018951F920F920FB60F92112471
:1007A0002F938F939F93EF93FF93E0912F01F091FD
:1007B00030018081E0913501F091360182FD1BC04E
:1007C0009081809138018F5F8F732091390182175A
:1007D00041F0E0913801F0E0E15EFE4F958F8093AB
:1007E0003801FF91EF919F918F912F910F900FBE44
:1007F0000F901F9018958081F4CF789484B5826013
:1008000084BD84B5816084BD85B5826085BD85B5B4
:10081000816085BD80916E00816080936E00109232
:1008200081008091810082608093810080918100AD
:10083000816080938100809180008160809380003E
:100840008091B10084608093B1008091B00081609C
:100850008093B00080917A00846080937A008091C8
:100860007A00826080937A0080917A008160809320
:100870007A0080917A00806880937A001092C1009B
:10088000E0912F01F091300182E08083E0912B0113
:10089000F0912C011082E0912D01F0912E0180E168
:1008A000808310923701E0913301F091340186E0AA
:1008B0008083E0913101F0913201808180618083F9
:1008C000E0913101F0913201808188608083E09174
:1008D0003101F0913201808180688083E0913101A3
:1008E000F091320180818F7D80838091BC01909155
:1008F000BD018F3E9E4B09F0BBC090E080E00E949E
:100900003E06182F81E090E00E943E06C82F82E04C
:1009100090E00E943E06D82F113A21F562EA90E05D
:1009200080E00E944606F89480E8EEEBF1E0A0E05B
:10093000B1E001900D928A95E1F788E198E00FB659
:10094000F894A895809360000FBE90936000CC2E21
:10095000DD2EE1E08E2EE5E0AE2EE1E19E2EE0E818
:10096000FFE30994123A09F083C060E090E080E070
:100970000E94460683E090E00E943E068B3B09F011
:100980004CC0C1E083E090E00E943E06CC23B9F069
:100990008C3C09F034C180E990E00E941F03E0E044
:1009A000F0E6E491E13059F486E890E00E941F03FC
:1009B0008FE191E00E943E02E1E0F0E30995E0E87A
:1009C000FFE58591949101978E3F9F4F08F452C0A7
:1009D00048E750E06FEF70E086EC91E00E948006FF
:1009E0008CE992E09093BF018093BE0180E391E097
:1009F0009093C1018093C00183E391E09093C30180
:100A00008093C20189E692E09093C5018093C4016E
:100A10006BEB80E89FE50E942B038A3A29F584E07E
:100A200090E00E943E06C1E0C80F85E090E00E9481
:100A30003E06D82F6C2F84E090E00E944606CD172A
:100A400008F49FCFAEEBB1E0E0E0F0E684918D9347
:100A50003196E03880E6F807C9F781E08093BE015F
:100A60006CEC80E090E6D7CFC1E08C3C09F48ACFF3
:100A7000C0E088CF82E790E00E941F038FE191E001
:100A80000E943E0280E8C82E8FE5D82EE12C90E629
:100A9000F92EAA24A39420E3B22E30E0832E30E076
:100AA000932E8FE191E00E949401892B09F47DC07F
:100AB0008FE191E00E947201803509F066C089EBF8
:100AC00090E00E941F0340E850E06FEF70E08EEB73
:100AD00091E00E948006612CD0E0C0E00E945E029E
:100AE000782E0E945E02582E711018C08111F6CF28
:100AF000662009F445C0CD2B09F442C060E084E0D3
:100B000090E00E94460661E085E090E00E94460683
:100B100085EA90E028C066246394E0CF20E427159E
:100B2000E8F210E000E00E945E02180F1F73C03868
:100B3000D10528F4FE01E254FE4F808321960F5F19
:100B40007012F1CF5112CACFC038D10520F360E046
:100B500084E090E00E9446066FEF85E090E00E94FE
:100B6000460680EB90E00E9423026AE070E080E09D
:100B70000E940E038FE191E00E943E026AEA71CF6B
:100B80008AE990E00E941F0310C08235E9F4F70162
:100B900084918130B1F481EE90E00E941F038FE1D7
:100BA00091E00E943E02F50109958114910409F437
:100BB00078CF0E94A001882309F473CF0E9400001F
:100BC00070CF85ED90E0DECF8F3379F78CEC90E03D
:100BD0000E942302F6016591749190E080E040E16B
:100BE0000E94B8020E94060384EC90E00E94230257
:100BF000F701849160E170E00E940E03D6CF8A3A3B
:100C000009F0DDCE84E090E00E943E06C82F8BE71D
:100C100090E00E9423026AE070E08C2F0E940E0395
:100C2000CECEEFE1F1E01382128288EE93E0A0E0F5
:100C3000B0E084839583A683B78384E091E09183B9
:100C4000808385EC90E09587848784EC90E097879B
:100C5000868780EC90E0918B808B81EC90E0938B89
:100C6000828B82EC90E0958B848B86EC90E0978B66
:100C7000868B118E128E138E148E0895F999FECFE5
:100C800092BD81BDF89A992780B50895262FF999CC
:100C9000FECF92BD81BDF89A019700B4021639F0DB
:100CA0001FBA20BD0FB6F894FA9AF99A0FBE0895AC
:100CB000A1E21A2EAA1BBB1BFD010DC0AA1FBB1F60
:100CC000EE1FFF1FA217B307E407F50720F0A21BD2
:100CD000B30BE40BF50B661F771F881F991F1A943F
:100CE00069F760957095809590959B01AC01BD0169
:100CF000CF010895EE0FFF1F0590F491E02D0994A8
:100D0000DC0101C06D9341505040E0F70895F89424
:100D1000FFCF00000000D601360163013E029401BE
:080D2000720186010D0A0000BA
:107E0000112484B714BE81FFF0D085E080938100F7
:107E100082E08093C00088E18093C10086E0809377
:107E2000C20080E18093C4008EE0C9D0259A86E02C
:107E300020E33CEF91E0309385002093840096BBD3
:107E4000B09BFECF1D9AA8958150A9F7CC24DD24C4
:107E500088248394B5E0AB2EA1E19A2EF3E0BF2EE7
:107E6000A2D0813461F49FD0082FAFD0023811F036
:107E7000013811F484E001C083E08DD089C08234E0
:107E800011F484E103C0853419F485E0A6D080C0E4
:107E9000853579F488D0E82EFF2485D0082F10E0AE
:107EA000102F00270E291F29000F111F8ED06801E7
:107EB0006FC0863521F484E090D080E0DECF843638
:107EC00009F040C070D06FD0082F6DD080E0C81688
:107ED00080E7D80618F4F601B7BEE895C0E0D1E017
:107EE00062D089930C17E1F7F0E0CF16F0E7DF06D8
:107EF00018F0F601B7BEE89568D007B600FCFDCFD4
:107F0000A601A0E0B1E02C9130E011968C91119780
:107F100090E0982F8827822B932B1296FA010C0160
:107F200087BEE89511244E5F5F4FF1E0A038BF0790
:107F300051F7F601A7BEE89507B600FCFDCF97BE46
:107F4000E89526C08437B1F42ED02DD0F82E2BD052
:107F50003CD0F601EF2C8F010F5F1F4F84911BD097
:107F6000EA94F801C1F70894C11CD11CFA94CF0C13
:107F7000D11C0EC0853739F428D08EE10CD085E9AC
:107F80000AD08FE07ACF813511F488E018D01DD067
:107F900080E101D065CF982F8091C00085FFFCCF94
:107FA0009093C60008958091C00087FFFCCF809118
:107FB000C00084FD01C0A8958091C6000895E0E648
:107FC000F0E098E1908380830895EDDF803219F02E
:107FD00088E0F5DFFFCF84E1DECF1F93182FE3DFCA
:107FE0001150E9F7F2DF1F91089580E0E8DFEE27F6
:047FF000FF270994CA
:027FFE00040479
:00000001FF
