:100000000C9486000C94AE000C94AE000C94AE00E0
:100010000C94AE000C94AE000C94AE000C948303D0
:100020000C94AE000C94AE000C94AE000C94AE0098
:100030000C94AE000C94AE000C94AE000C94AE0088
:100040000C94E1020C94AE000C9451030C942B031D
:100050000C94AE000C94AE000C94AE000C94AE0068
:100060000C94AE000C94AE003D3D3D20546573747D
:1000700020636F6D706C657461646F203D3D3D0061
:100080005072696D65726F732031362062797465C4
:100090007320656E203078363030303A0044657316
:1000A000707565733A203078004552524F523A20AD
:1000B0004573637269747572612066616C6C696402
:1000C0006100457363726974757261204F4B002E35
:1000D0002E2E0045736372696269656E646F2065D8
:1000E0006E20307800416E7465733A20202030789D
:1000F000003D3D3D20426F6F744A61636B65722025
:1001000054657374203D3D3D0000120511241FBE4F
:10011000CFEFD8E0DEBFCDBF11E0A0E0B1E0E0EE70
:10012000FAE002C005900D92A631B107D9F721E09F
:10013000A6E1B1E001C01D92A13CB207E1F710E0D9
:10014000C6E8D0E004C02197FE010E946105C538D1
:10015000D107C9F70E949B030C946E050C94000014
:100160006F927F928F929F92AF92CF92DF92EF9297
:10017000FF920F931F93CF93DF931092230110925E
:10018000B2008DE78093B30082E087BB809370005C
:100190008093B00087E08093B100612C80E6782ED8
:1001A000E7EEF0E0E0932101F0932201EDB7E09358
:1001B0001F01EEB7E0932001630101E0802E05E00E
:1001C000A02E01E1902E7894EDE7FFE3099481E4FD
:1001D00092E4AFE0B0E020912301211104C0019727
:1001E000A109B109C1F71092B10010927000DF911E
:1001F000CF911F910F91FF90EF90DF90CF90AF9034
:100200009F908F907F906F9008958F929F92BF9252
:10021000CF92DF92EF92FF920F931F93CF93DF93D2
:10022000109223011092B2008EE48093B30082E01A
:1002300087BB809370008093B00087E08093B1000B
:10024000812C80E6982EE6E3F1E0E0932101F09323
:100250002201EDB7E0931F01EEB7E09320016401A6
:1002600003E0B02E7894EBE6FFE3099481E492E496
:10027000AFE0B0E020912301211104C00197A10952
:10028000B109C1F71092B10010927000DF91CF91C7
:100290001F910F91FF90EF90DF90CF90BF909F90B4
:1002A0008F900895AF92BF92CF92DF92EF92FF921C
:1002B0000F931F93CF93DF936C017B018B01040F8E
:1002C000151FEB015E01AE18BF08C017D10759F02A
:1002D0006991D601ED91FC910190F081E02DC6016C
:1002E0000995892B79F7C501DF91CF911F910F9166
:1002F000FF90EF90DF90CF90BF90AF900895FC01FA
:10030000538D448D252F30E0842F90E0821B930B7A
:10031000541710F0CF96089501970895FC01918D20
:10032000828D981761F0A28DAE0FBF2FB11D5D9623
:100330008C91928D9F5F9F73928F90E008958FEFC5
:100340009FEF0895FC01918D828D981731F0828D79
:10035000E80FF11D858D90E008958FEF9FEF0895D0
:10036000FC01918D228D892F90E0805C9F4F821B34
:1003700091098F739927089584E291E00E94B0015A
:1003800021E0892B09F420E0822F089580E090E09D
:10039000892B29F00E94BC0181110C940000089562
:1003A000FC01A48DA80FB92FB11DA35ABF4F2C91EA
:1003B000848D90E001968F739927848FA689B789E1
:1003C0002C93A089B1898C91837080648C93938DD8
:1003D000848D981306C00288F389E02D80818F7D7B
:1003E00080830895EF92FF920F931F93CF93DF9333
:1003F000EC0181E0888F9B8D8C8D98131AC0E88961
:10040000F989808185FF15C09FB7F894EE89FF892F
:100410006083E889F98980818370806480839FBFCD
:1004200081E090E0DF91CF911F910F91FF90EF90CD
:100430000895F62E0B8D10E00F5F1F4F0F731127DD
:10044000E02E8C8D8E110CC00FB607FCFACFE88918
:10045000F989808185FFF5CFCE010E94D001F1CFCF
:10046000EB8DEC0FFD2FF11DE35AFF4FF0829FB78C
:10047000F8940B8FEA89FB8980818062CFCF0F933C
:100480001F93CF93DF938C01D0E0C0E0F801EC0F15
:10049000FD1F6491662341F084E291E00E94F20125
:1004A000892B11F02196F2CFCE01DF91CF911F91D0
:1004B0000F910895682F84E291E00C94F201CF939C
:1004C000DF93EC01888D8823B9F0AA89BB89E8897C
:1004D000F9898C9185FD03C0808186FD0DC00FB622
:1004E00007FCF7CF8C9185FFF2CF808185FFEDCFA0
:1004F000CE010E94D001E9CFDF91CF9108958F9274
:100500009F92AF92BF920F931F93CF93DF93CDB77C
:10051000DEB7A1970FB6F894DEBF0FBECDBF19A20C
:10052000423008F44AE08E010F5D1F4F842E912C5B
:10053000B12CA12CA50194010E943F05E62FB90121
:10054000CA01EA3044F5E05DD801EE938D01232B1A
:10055000242B252B79F790E080E0109769F0FD01BE
:1005600001900020E9F73197AF014A1B5B0BBD01F9
:1005700084E291E00E945201A1960FB6F894DEBF8A
:100580000FBECDBFDF91CF911F910F91BF90AF9064
:100590009F908F900895E95CD7CF42E050E062E1F0
:1005A00071E084E291E00C945201CF93DF930E94BA
:1005B0003F02EC010E94CD028C0F9D1FDF91CF9175
:1005C00008951F920F920FB60F9211242F933F930D
:1005D0008F939F93AF93BF9380911B0190911C01C8
:1005E000A0911D01B0911E0130911A0123E0230F4B
:1005F0002D3758F50196A11DB11D20931A01809346
:100600001B0190931C01A0931D01B0931E018091CA
:10061000160190911701A0911801B091190101964E
:10062000A11DB11D8093160190931701A09318018D
:10063000B0931901BF91AF919F918F913F912F91ED
:100640000F900FBE0F901F90189526E8230F02966B
:10065000A11DB11DD2CF1F920F920FB60F92112480
:100660002F933F934F935F936F937F938F939F93BA
:10067000AF93BF93EF93FF9384E291E00E94D00188
:10068000FF91EF91BF91AF919F918F917F916F916A
:100690005F914F913F912F910F900FBE0F901F9040
:1006A00018951F920F920FB60F9211242F938F93CC
:1006B0009F93EF93FF93E0913401F0913501808196
:1006C000E0913A01F0913B0182FD1BC09081809145
:1006D0003D018F5F8F7320913E01821741F0E091C1
:1006E0003D01F0E0EC5DFE4F958F80933D01FF9161
:1006F000EF919F918F912F910F900FBE0F901F90B0
:1007000018958081F4CFE0E0E093B100E0937000B1
:10071000E1E0E0932301E0911F01EDBFE0912001B2
:10072000EEBFE0912201EF93E0912101EF931124BC
:10073000EE27FF271895CF93DF93CDB7DEB7DA9575
:100740000FB6F894DEBF0FBECDBF789484B582603B
:1007500084BD84B5816084BD85B5826085BD85B565
:10076000816085BD80916E00816080936E001092E3
:10077000810080918100826080938100809181005E
:1007800081608093810080918000816080938000EF
:100790008091B10084608093B1008091B00081604D
:1007A0008093B00080917A00846080937A00809179
:1007B0007A00826080937A0080917A0081608093D1
:1007C0007A0080917A00806880937A001092C1004C
:1007D000E0913401F091350182E08083E0913001B5
:1007E000F09131011082E0913201F091330180E10A
:1007F000808310923C01E0913801F091390186E04C
:100800008083E0913601F09137018081806180839F
:10081000E0913601F0913701808188608083E0911A
:100820003601F0913701808180688083E091360144
:10083000F091370180818F7D808381EF90E00E946D
:10084000D5020E94CD021092B0001092B100109219
:10085000B20010927000E0E0F0E6149185EE90E0B6
:100860000E943F02103118F480E30E945A02612F67
:1008700070E090E080E040E10E947F020E94CD02A3
:1008800040E850E06FEF70E0CE018F579F4F0E941D
:10089000670585E0CF57DF4F8883C158D04083ED8F
:1008A00090E00E943F0240E160E070E680E090E06E
:1008B0000E947F028FEC90E00E94D50284E291E0DA
:1008C0000E945F02F89400916E00F0906F00109209
:1008D0006E0010926F00E090C1008091C1008F7196
:1008E0008093C10080E8E0E0F1E0DE011196019024
:1008F0000D928A95E1F780E8FE01EF57FF4FA0E0E7
:10090000B1E001900D928A95E1F713E00E94050194
:100910000E94B00080E8FE013196A0E0B1E00190B5
:100920000D928A95E1F7DE01AF57BF4FE0E0F0E6A8
:1009300094918D9198130AC03196E03880E6F807BB
:10094000B9F780E019C089EA90E021C080E8FE0193
:10095000EF57FF4FA0E0B1E001900D928A95E1F7CB
:100960001150A1F680E8FE013196A0E0B1E00190BF
:100970000D928A95E1F781E000936E00F0926F008E
:10098000E092C10078948111DECF82EC90E00E9469
:10099000D502E0E0F0E614918DE990E00E943F027C
:1009A000103118F480E30E945A02612F70E090E049
:1009B00080E040E10E947F020E94CD020E94CD02B1
:1009C00080E890E00E94D50200E010E6F801F49083
:1009D000FFE0FF1518F080E30E945A026F2D70E0CF
:1009E00090E080E040E10E947F0280E20E945A0293
:1009F0000F5F1F4F003180E6180741F70E94CD02BC
:100A00000E94CD0288E690E00E94D50200E010E04E
:100A100001151105E9F30E94BC018823C9F30E9466
:100A20000000F6CFE4E2F1E01382128288EE93E058
:100A3000A0E0B0E084839583A683B78384E091E04F
:100A40009183808385EC90E09587848784EC90E0A7
:100A50009787868780EC90E0918B808B81EC90E08B
:100A6000938B828B82EC90E0958B848B86EC90E06C
:100A7000978B868B118E128E138E148E0895A1E2A1
:100A80001A2EAA1BBB1BFD010DC0AA1FBB1FEE1F08
:100A9000FF1FA217B307E407F50720F0A21BB30B53
:100AA000E40BF50B661F771F881F991F1A9469F7CF
:100AB00060957095809590959B01AC01BD01CF012B
:100AC0000895EE0FFF1F0590F491E02D0994DC01CD
:100AD00001C06D9341505040E0F70895F894FFCF66
:100AE00000000000F20152017F015F02B0018E019F
:060AF000A2010D0A000046
:00000001FF
