:020000040000FA
:100000000C9482000C94AA000C94AA000C94AA00F0
:100010000C94AA000C94AA000C94AA000C947C1EC8
:100020000C94AA000C94AA000C94AA000C94C01D75
:100030000C94AA000C94AA000C94AA000C94AA0098
:100040000C941E1D0C94AA000C948E1D0C94681D1B
:100050000C94AA000C94AA000C94AA000C94AA0078
:100060000C94AA000C94AA004E4B3A4C4F4F5000EF
:100070004E4B3A45584543004E4B3A464C4147207B
:10008000004E4B3A57494E20004E4B3A424A004EE2
:100090004B3A424F4F54004E4B3A33004E4B3A329C
:1000A000004E4B3A3100000000080002010000033E
:1000B0000407000000000000000000000000240011
:1000C00027002A000000000023002600290001026A
:1000D00004081020408001020408102001020408D6
:1000E000102000000000250028002B000404040458
:1000F00004040404020202020202030303030303D2
:10010000FB1E822011241FBECFEFD8E0DEBFCDBF83
:1001100011E0A0E0B1E0E2EFF8E402C005900D923A
:10012000AC3DB107D9F724E0ACEDB1E001C01D92C0
:10013000AD33B207E1F710E0C1E8D0E004C0219789
:10014000FE010E944522C038D107C9F70E94601FF6
:100150000C946C240C940000FC018281938108951E
:10016000DC0170E0FB01E253FF4FE4911496EC9345
:10017000149750E0FA01E253FF4FE4911596EC9387
:10018000159764517F4FFB018491E82FF0E0EE0F4B
:10019000FF1FEE51FF4F8591949117969C938E937C
:1001A0001697FA01E451FF4FE491F0E0EE0FFF1FC4
:1001B000EC53FF4F8591949119969C938E931897C9
:1001C000FB016491E62FF0E0EE0FFF1FE654FF4FB6
:1001D000859194911B969C938E931A978DE796E147
:1001E0001D969C938E931C970895833081F028F47C
:1001F000813099F08230A9F008958730A9F08830D5
:10020000C9F08430B1F4809180008F7D03C080916B
:1002100080008F7780938000089584B58F7784BDA8
:10022000089584B58F7DFBCF8091B0008F77809348
:10023000B00008958091B0008F7DF9CFCF93DF9308
:10024000282F30E0F901EA55FF4F8491F901E2537C
:10025000FF4FD491F901E451FF4FC491CC23A1F099
:1002600081110E94F500EC2FF0E0EE0FFF1FEC5320
:10027000FF4FA591B491EC91ED2381E090E009F45A
:1002800080E0DF91CF91089580E090E0FACF1F9356
:10029000CF93DF93282F30E0F901EA55FF4F849187
:1002A000F901E253FF4FD491F901E451FF4FC4919A
:1002B000CC23A9F0162F81110E94F500EC2FF0E05D
:1002C000EE0FFF1FEE51FF4FA591B4918FB7F89439
:1002D000EC91111108C0D095DE23DC938FBFDF9124
:1002E000CF911F910895DE2BF8CFCF93DF9390E04D
:1002F000FC01E253FF4F249184519F4FFC018491F4
:100300008823D1F090E0880F991FFC01E654FF4F3D
:10031000A591B491FC01EE51FF4FC591D4916111AB
:100320000EC09FB7F8948C91E22FE0958E238C93AA
:100330002881E223E8839FBFDF91CF9108958FB793
:10034000F894EC91E22BEC938FBFF6CFCF93EEE1D4
:10035000F2E0AFEF90E0208187FF05C027FF47C0A4
:10036000AF3F41F406C0821709F441C0AF3F11F41A
:1003700027FDA92F9F5F3996943169F787FD3AC011
:10038000AF3F09F437C0C82F89E0A802D00111247B
:10039000A25EBD4FCC9320911D0211962C93119714
:1003A0008C2F0C2E000C990BFC01E451FF4FE491B3
:1003B000F0E0EE0FFF1FEE51FF4F45915491139661
:1003C0005C934E931297FC01E253FF4FE491149615
:1003D000EC93149715966C9360E0211161E08C2FDB
:1003E0000E94470161E08C2FCF910C9475016583C9
:1003F00087FDBCCFCF910895282F3FEF639FC001A9
:10040000112464E670E00E941622822F0C94A6014B
:100410003FB7F89480910C0290910D02A0910E02CA
:10042000B0910F0226B5A89B05C02F3F19F0019689
:10043000A11DB11D3FBFBA2FA92F982F8827BC013E
:10044000CD01620F711D811D911D42E0660F771F66
:10045000881F991F4A95D1F708952FB7F894609196
:1004600008027091090280910A0290910B022FBF3D
:100470000895AF92BF92CF92DF92EF92FF920F93C7
:100480001F93CF93DF936C017B018B01040F151F2A
:10049000EB015E01AE18BF08C017D10759F0699192
:1004A000D601ED91FC910190F081E02DC6010995F6
:1004B000892B79F7C501DF91CF911F910F91FF90A3
:1004C000EF90DF90CF90BF90AF900895FC01538DD7
:1004D000448D252F30E0842F90E0821B930B54171E
:1004E00010F0CF96089501970895FC01918D828DAB
:1004F000981761F0A28DAE0FBF2FB11D5D968C9144
:10050000928D9F5F9F73928F90E008958FEF9FEF82
:100510000895FC01918D828D981731F0828DE80F3E
:10052000F11D858D90E008958FEF9FEF0895FC01F8
:10053000918D228D892F90E0805C9F4F821B9109C5
:100540008F739927089582ED92E00E94970221E02F
:10055000892B09F420E0822F089580E090E0892B18
:1005600029F00E94A30281110C9400000895FC015F
:10057000A48DA80FB92FB11DA35ABF4F2C91848D04
:1005800090E001968F739927848FA689B7892C9361
:10059000A089B1898C91837080648C93938D848DB4
:1005A000981306C00288F389E02D80818F7D8083B7
:1005B0000895EF92FF920F931F93CF93DF93EC0177
:1005C00081E0888F9B8D8C8D98131AC0E889F989FA
:1005D000808185FF15C09FB7F894EE89FF896083FD
:1005E000E889F98980818370806480839FBF81E07E
:1005F00090E0DF91CF911F910F91FF90EF900895C0
:10060000F62E0B8D10E00F5F1F4F0F731127E02E9A
:100610008C8D8E110CC00FB607FCFACFE889F989D2
:10062000808185FFF5CFCE010E94B702F1CFEB8D1F
:10063000EC0FFD2FF11DE35AFF4FF0829FB7F894A6
:100640000B8FEA89FB8980818062CFCF0F931F9344
:10065000CF93DF938C01D0E0C0E0F801EC0FFD1FD9
:100660006491662341F082ED92E00E94D902892BC9
:1006700011F02196F2CFCE01DF91CF911F910F9112
:100680000895CF93DF93EC01888D8823B9F0AA8970
:10069000BB89E889F9898C9185FD03C0808186FD3D
:1006A0000DC00FB607FCF7CF8C9185FFF2CF80818C
:1006B00085FFEDCFCE010E94B702E9CFDF91CF9148
:1006C0000895CF92DF92EF92FF92CF93DF93EC01E8
:1006D000603282E07807CCF5653B710514F064EB7D
:1006E00070E0898128E830E0281B310987FD3395C7
:1006F000220F331F220F331F6901330FEE08FF084B
:100700008A8128E532E0281B310987FD3395220FC5
:10071000331F220F331F032E000C440B550B2C19D3
:100720003D094E095F09DB0177FF02C0B0E0A0E0A0
:100730000E948A2124EB30E040E050E00E946021DA
:10074000C20ED31EE41EF51EB601E881EC3070F532
:10075000298188E890E0821B910927FD9395880FF5
:10076000991F880F991F681779077CF02A8188E5FF
:1007700092E0821B910927FD9395880F991F880F9E
:10078000991F681779070CF4CB010297880F991FFE
:100790004FB7F8942E2F30E0F901EE0FFF1FE20F54
:1007A000F31FEE51FE4F928381834FBFDF91CF91B4
:1007B000FF90EF90DF90CF9008950F931F93CF930A
:1007C000DF938B01EC016C817D816115710551F026
:1007D000CE01F80109951816190624F00C80DD8168
:1007E000C02DF1CFCE01DF91CF911F910F910895D0
:1007F0004F925F926F927F928F929F92AF92BF9231
:10080000CF92DF92EF92FF920F931F93CF93DF93DC
:10081000FC012281338122303105F4F05B016C014F
:100820002C01F4E04F0E511C7201F701C081D181FF
:100830002097D1F3B501CE010E94DD034C01FC01EC
:100840000481158101151105C1F4E414F50461F763
:10085000F601978386831486DF91CF911F910F91C4
:10086000FF90EF90DF90CF90BF90AF909F908F90D0
:100870007F906F905F904F900895B501C8010E94DE
:10088000DD03FC0164807580F40115821482FC0193
:1008900015821482B801CE01F5010995F7011816E9
:1008A00019066CF0D183C0837E01F4E0EF0EF11CD9
:1008B0008C819D81009781F41D830C831CC0118362
:1008C00000837801F4E0EF0EF11CF801848195813A
:1008D0000097D1F08C01CE01EC01DCCFEC018C81D2
:1008E0009D810097D9F77D826C827E01F4E0EF0E46
:1008F000F11C9BCF8C01F801848195810097D1F781
:10090000758264827801F2CFD583C483E8CFDC019D
:100910001496ED91FC9115971C968C911C97882349
:10092000B1F01A962D913C911B97621773077CF0DA
:100930001896ED91FC911997261737075CF43097BC
:10094000C1F00480F581E02D2F5F3F4FF5CF30E0FF
:1009500020E0F2CF2617370771F481E01C968C93C4
:100960001C971B963C932E931A971996FC93EE9323
:100970001897CF010895F0E0E0E0FBCFCF93DF932D
:10098000EC01E881F9810190F081E02DCE0109951B
:100990001816190644F4E881F9810684F785E02DDC
:1009A000CE010995EECFDF91CF9108950E94870483
:1009B000009731F0FC0160817181828193810895FB
:1009C00060E070E0CB010895CF92DF92EF92FF924A
:1009D00077FD16C0DC011296ED91FC916E177F0732
:1009E0007CF469017A010E948704FC01C082D182F3
:1009F000E282F38281E0FF90EF90DF90CF90089544
:100A000080E0F9CFCF93DF93EC01E881F981019089
:100A1000F081E02D0995892BA1F0E881F98100880A
:100A2000F189E02D70E060E0CE010995009749F072
:100A3000DC01ED91FC910190F081E02DDF91CF91EF
:100A4000099490E080E0DF91CF9108950F931F9378
:100A5000CF93DF938B01EC016A817B816115710576
:100A600051F0CE01F80109951816190624F00A80F4
:100A7000DB81C02DF1CFCE01DF91CF911F910F917E
:100A80000895DC011496ED91FC9115971C968C91BC
:100A90001C978823B1F01A962D913C911B976217F1
:100AA00073077CF01896ED91FC911997261737077C
:100AB0005CF43097C1F00280F381E02D2F5F3F4F4F
:100AC000F5CF30E020E0F2CF2617370771F481E050
:100AD0001C968C931C971B963C932E931A971996F1
:100AE000FC93EE931897CF010895F0E0E0E0FBCF80
:100AF0004F925F926F927F928F929F92AF92BF922E
:100B0000CF92DF92EF92FF920F931F93CF93DF93D9
:100B1000FC012281338122303105F4F05B016C014C
:100B20002C01F4E04F0E511C7201F701C081D181FC
:100B30002097D1F3B501CE010E9426054C01FC019E
:100B40000281138101151105C1F4E414F50461F764
:100B5000F601978386831486DF91CF911F910F91C1
:100B6000FF90EF90DF90CF90BF90AF909F908F90CD
:100B70007F906F905F904F900895B501C8010E94DB
:100B80002605FC0162807380F40113821282FC014D
:100B900013821282B801CE01F5010995F7011816EA
:100BA00019066CF0D183C0837E01F2E0EF0EF11CD8
:100BB0008A819B81009781F41B830A831CC0118367
:100BC00000837801F2E0EF0EF11CF801828193813D
:100BD0000097D1F08C01CE01EC01DCCFEC018A81D1
:100BE0009B810097D9F77B826A827E01F2E0EF0E4B
:100BF000F11C9BCF8C01F801828193810097D1F782
:100C0000738262827801F2CFD383C283E8CFCF931D
:100C1000DF93EC01E881F9810190F081E02DCE01B4
:100C200009951816190644F4E881F9810684F785B8
:100C3000E02DCE010995EECFDF91CF9108950E946E
:100C40004105009721F0FC0180819181089590E099
:100C500080E00895CF93DF9377FD10C0FC012281DF
:100C600033816217730754F4EA010E944105FC01C5
:100C7000D183C08381E0DF91CF91089580E0FBCFE5
:100C8000FF920F931F93CF93DF93082FCEE1D2E013
:100C9000FF24FA94188107FF0DC017FF0DC0299695
:100CA00082E0C23DD807B1F7DF91CF911F910F913C
:100CB000FF9008950113F3CF61E0812F0E94470157
:100CC00060E0812F0E947501F882E9CFCF92DF9218
:100CD000EF92FF920F931F93CF93DF93CDB7DEB7C1
:100CE00029970FB6F894DEBF0FBECDBFFC018B0174
:100CF00024853585DB0112968D919C9113972817D9
:100D00003907D8F560854481508118968C918823E5
:100D100061F0589FF00111245F2F849FF00111248E
:100D20004F2F869FC0011124692FD8011E96EC9188
:100D30001E9719968D919C911A971B967C91E7139B
:100D4000A5C0F901EE0FFF1F2E0F3F1F820F931F4B
:100D5000D8011B96EC911B97E80FF92FF11D5083DA
:100D60001C96EC911C97E80FF92FF11D40831D96FE
:100D70002C91820F911DFC016083D80119968D91F1
:100D80009C91892B09F473C00E940802F801C78462
:100D9000D088E188F2886C157D058E059F0520F4CA
:100DA0006787708B818B928BF801C784D088E1882C
:100DB000F2886C197D098E099F096C32714081059A
:100DC000910510F3F894D80114968D919C91159784
:100DD0009A8389831996ED91FC917F01BFEFEB1AFD
:100DE000FB0A80818987F80190810388F489E02DCE
:100DF000D80155968C91992309F453C09081982B72
:100E000098879081809589238F838F818C8388E058
:100E10008B8358856F8149853B812C8189819A819B
:100E2000D701508347FD252F3A952083262F39F08F
:100E3000441F00C000006083000000C0F2CF38E013
:100E40004D9160830000019761F7D8015496FC939F
:100E5000EE93539749873B832C839A8389837894B5
:100E60000E940802F8016787708B818B928B29960C
:100E70000FB6F894DEBF0FBECDBFDF91CF911F91AB
:100E80000F91FF90EF90DF90CF900895220F331FC6
:100E9000220F331F820F931FE80FF92FF11D1082CD
:100EA00057CF9081982B98879081809589238F8345
:100EB0008F818E8388E08D8358856F8149853D8140
:100EC0002E8189819A81D701508347FD252F00C04B
:100ED00000C0208300C000C000C000C000C060830C
:100EE0000000262F3A9541F0441F000000C000C0CA
:100EF00000C000C000C0E8CF38E04D9100C0608362
:100F000000C0019709F7D8015496FC93EE935397CC
:100F100049873D832E83A1CF0F931F93CF93DF93F8
:100F2000EB018A01FC014081518162817381453668
:100F300051056105710520F044E650E060E070E085
:100F4000F80140832A81FC0184819581A681B781C3
:100F500021112DC081309105A105B105B1F048F0F6
:100F60000297A105B105B1F0DF91CF911F910F91CB
:100F70000895642F88810E94FC0160E08981DF91DF
:100F8000CF911F910F910C94A60160E088810E947F
:100F9000A601F3CF60E088810E94A601F80160817C
:100FA0008981DF91CF911F910F910C94FC018130C9
:100FB0009105A105B105B9F050F00297A105B10561
:100FC00099F660E088810E94470161E005C061E018
:100FD00088810E94470160E089810E944701F801F1
:100FE00060818A81DECF60E088810E94470160E0F5
:100FF00089810E94470160E08A81C1CFCF93DF934E
:10100000EC01FB018A8180838C8181838E818283C4
:101010008E819F81892B51F460E08A810E94A60114
:1010200060E08C81DF91CF910C94A60161E08A8110
:101030000E94750161E08C810E94750160E08E81E3
:10104000F1CF2F923F924F925F926F927F928F9249
:101050009F92AF92BF92CF92DF92EF92FF920F9347
:101060001F93CF93DF9300D000D000D01F92CDB755
:10107000DEB7FC017B836A832085318580E197E2BE
:10108000289F8001299F100D389F100D1124248561
:10109000358544E6429FC001439F900D1124080FFF
:1010A000191F80899189080F191F20813181428180
:1010B0005381A4E6B0E00E947F21248135814681DE
:1010C0005781260F371F481F591F2801712C612C8B
:1010D000211531054105510519F0148911113EC042
:1010E0000E9408024B015C01411451046104710427
:1010F00049F527960FB6F894DEBF0FBECDBFDF913E
:10110000CF911F910F91FF90EF90DF90CF90BF9004
:10111000AF909F908F907F906F905F904F903F9097
:101120002F90089521E0421A51086108710838EEA5
:10113000830E33E0931EA11CB11C411451046104C1
:10114000710491F20E940802681979098A099B09C1
:10115000683E73408105910528F7C6CF60E472E4CC
:101160008FE090E00E94C92149015A01E12FF0E08F
:10117000E458FE4F208130E050E040E0C501B4016A
:101180000E94C9216901EA81FB81808190E0FC0114
:10119000E253FF4F2491298384519F4FFC012491F6
:1011A000E22FF0E0EE0FFF1FEE51FF4F259134913B
:1011B0003F832E83FC018491E82FF0E0EE0FFF1FA8
:1011C000E654FF4FA591B4918C91F9818F2B8C93AC
:1011D0000E942D026A837B838C839D831601860186
:1011E000000F111F000F111F055011098C189D08C9
:1011F0007401EE0CFF1CEE0CFF1C25E0E21AF10856
:10120000D980D0940E942D022A813B814C815D813E
:10121000621B730B840B950B64157505860597058A
:1012200008F067CFEE81FF818081F9818F2BEE81FD
:10123000FF818083F2E02F16310418F0C801019776
:10124000F1F7EE81FF8180818D218083F2E08F169E
:101250009104C0F2C7010197F1F7D4CFCF93DF9388
:10126000EB01FC0180818E3008F08E508770806425
:1012700080937C0080917A00806480937A008091D2
:101280007A0086FDFCCFA0917800B091790024E629
:1012900030E00E943E222FEF33E040E050E00E9419
:1012A00060212883DF91CF910895CF93DF93EC01E4
:1012B00082ED92E00E949702892B49F082ED92E044
:1012C0000E947502888381E0DF91CF91089580E0CC
:1012D000FBCF0F931F93CF93DF938B01EC016A81B8
:1012E0007B816115710551F0CE01F8010995181641
:1012F000190624F00A80DB81C02DF1CFCE01DF91E9
:10130000CF911F910F9108954F925F926F927F92AC
:101310008F929F92AF92BF92CF92DF92EF92FF9205
:101320000F931F93CF93DF93FC01228133812230EF
:101330003105F4F05B016C012C01F4E04F0E511CFF
:101340007201F701C081D1812097D1F3B501CE019F
:101350000E9469094C01FC010281138101151105EC
:10136000C1F4E414F50461F7F601978386831486CB
:10137000DF91CF911F910F91FF90EF90DF90CF9071
:10138000BF90AF909F908F907F906F905F904F90A5
:101390000895B501C8010E946909FC01628073804B
:1013A000F40113821282FC0113821282B801CE0171
:1013B000F5010995F701181619066CF0D183C08361
:1013C0007E01F2E0EF0EF11C8A819B81009781F48F
:1013D0001B830A831CC0118300837801F2E0EF0EA7
:1013E000F11CF801828193810097D1F08C01CE012C
:1013F000EC01DCCFEC018A819B810097D9F77B82DD
:101400006A827E01F2E0EF0EF11C9BCF8C01F801A5
:10141000828193810097D1F7738262827801F2CF43
:10142000D383C283E8CFCF93DF93EC01E881F981C6
:101430000190F081E02DCE0109951816190644F4AB
:10144000E881F9810684F785E02DCE010995EECF7C
:10145000DF91CF9108950E944105009721F0FC0192
:1014600080819181089590E080E00895CF93DF938B
:1014700077FD10C0FC01228133816217730754F499
:10148000EA010E944105FC01D183C08381E0DF9124
:10149000CF91089580E0FBCF4F925F926F927F9241
:1014A000AF92BF92CF92DF92EF92FF920F931F9372
:1014B000CF93DF93CDB7DEB729013A019B01AC0191
:1014C000241935094609570989899A89AB89BC8944
:1014D000BC01CD016A197B098C099D090E94FA2182
:1014E000A801970124193509460957090E9460216E
:1014F000CA01B9016A0D7B1D8C1D9D1DDF91CF9125
:101500001F910F91FF90EF90DF90CF90BF90AF9021
:101510007F906F905F904F900895EF92FF920F939E
:101520001F93CF93DF93DC01CD91DC91209769F17C
:10153000F12CE12CE881F9810190F081E02DCE01C0
:101540000995E816F9060CF5E881F9810088F1891A
:10155000E02DB701CE0109958C01009791F0DC01D7
:10156000ED91FC910190F081E02D09951816190676
:1015700044F4D801ED91FC910484F585E02DC80177
:101580000995BFEFEB1AFB0AD5CFDF91CF911F91E1
:101590000F91FF90EF9008950F931F93CF93DF93D8
:1015A000DC01CD91DC91209719F110E000E0E88199
:1015B000F9810190F081E02DCE01099508171907F6
:1015C000BCF4E881F9810088F189E02DB801CE01F1
:1015D0000995009751F0DC01ED91FC910480F581B3
:1015E000E02D40E050E0BA0109950F5F1F4FDFCFBB
:1015F000DF91CF911F910F910895FC01808191811E
:10160000009711F00C94020590E080E00895DC0151
:101610008D919C91009739F0DC01ED91FC91019046
:10162000F081E02D099490E080E00895EF92FF9220
:101630000F931F93CF93DF93FC01C081D18120973B
:1016400091F177FD30C08A017B01E881F981019039
:10165000F081E02DCE010995E816F90624F5E88120
:10166000F9810088F189E02DB701CE010995EC01DF
:101670000097C9F017FD17C0E881F9810190F0814A
:10168000E02D09950817190774F4E881F98100889D
:10169000F189E02DB801CE01DF91CF911F910F911B
:1016A000FF90EF90099460E070E0CB01DF91CF9163
:1016B0001F910F91FF90EF9008958F929F92AF929C
:1016C000BF92CF92DF92EF92FF920F931F93CF932F
:1016D000DF93FC01C081D1812097D9F177FD39C01A
:1016E00059017A016B01E881F9810190F081E02DC7
:1016F000CE010995C816D90664F5E881F9810088FC
:10170000F189E02DB601CE010995EC01009709F1B0
:10171000F7FC1FC0E881F9810190F081E02D099567
:10172000E816F906B4F4E881F9810084F185E02D2A
:10173000A5019801B701CE01DF91CF911F910F91C3
:10174000FF90EF90DF90CF90BF90AF909F908F90E1
:101750000994DF91CF911F910F91FF90EF90DF904F
:10176000CF90BF90AF909F908F9008958F929F924F
:10177000AF92BF920F931F93CF93DF93CDB7DEB796
:10178000A1970FB6F894DEBF0FBECDBF19A24230AD
:1017900008F44AE08E010F5D1F4F842E912CB12C6E
:1017A000A12CA50194010E94C921E62FB901CA010B
:1017B000EA3044F5E05DD801EE938D01232B242B14
:1017C000252B79F790E080E0109769F0FD010190FA
:1017D0000020E9F73197AF014A1B5B0BBD0182ED99
:1017E00092E00E943902A1960FB6F894DEBF0FBEB8
:1017F000CDBFDF91CF911F910F91BF90AF909F9080
:101800008F900895E95CD7CF42E050E068ED71E039
:1018100082ED92E00C943902CF93DF930E9426036D
:10182000EC010E94040C8C0F9D1FDF91CF91089555
:10183000CF92DF92EF92FF920F931F93CF93DF939C
:101840008C01EB01EA85FB8580819C81892B80835B
:10185000EE81FF8190818C818095892380838BE04C
:1018600090E00197F1F7EE81FF8180819C81892BC7
:10187000808383E290E00197F1F7EE81FF81908110
:101880008C81809589238083EA85FB8590818C817A
:10189000809589238083E885F98580819D818923CE
:1018A000D9F090E080E0BC0190E080E029E330E0F6
:1018B00040E050E00E94C921822FF801208340912E
:1018C0001B0250911C024330510509F066C0811182
:1018D00057C083E6808358C00E940802AB01BC0158
:1018E0008C859D85B0E0A0E08855994EAF4FBF4FE5
:1018F000840F951FA61FB71F8E879F87A88BB98B54
:10190000E885F98580819D81892361F40E94080220
:10191000CE84DF84E888F988C616D706E806F9067B
:1019200078F7BFCF0E9408022C853D85620F731F98
:10193000811D911D6E877F87888B998BE885F9853E
:1019400080819D81892361F00E940802CE84DF841A
:10195000E888F988C616D706E806F90678F7A1CF11
:101960000E9408022C853D85A901455051092E850C
:101970003F85FA01E21BF30BCF01860F971F93CF30
:1019800010921C0210921B02DF91CF911F910F91B8
:10199000FF90EF90DF90CF90089530E081110AC062
:1019A0004F5F5F4F50931C0240931B02209119021E
:1019B00030911A0230931A0220931902811101C04A
:1019C000822FF80187CFFC01862F90E1DF011D9265
:1019D0009A95E9F7608360E00C94750120E1FC01C1
:1019E00011922A95E9F7FC01608308950C94EE0C9E
:1019F000CF93DF93CDB7DEB728970FB6F894DEBF4D
:101A00000FBECDBFE0E1DC011D92EA95E9F7E1E010
:101A1000F0E0FA83E9837C836B835E834D833887B0
:101A20002F83BC01CE0101960E94FE0728960FB6B7
:101A3000F894DEBF0FBECDBFDF91CF910895CF9355
:101A4000C62F20E1FC0111922A95E9F7FC01608381
:101A500061E08C2F0E94750160E08C2FCF910C9477
:101A6000A601EF92FF920F931F93CF93DF93DC01B8
:101A700012962D913C911397121613064CF52130B6
:101A80003105D1F0EC018C819D81FC01E280F38075
:101A9000008111810E94E722FD82EC828A819B8174
:101AA00001979B838A831C86C801DF91CF911F9188
:101AB0000F91FF90EF900895ED91FC910484F585CE
:101AC000E02DDF91CF911F910F91FF90EF9009943E
:101AD00010E000E0E9CFFC0180819181009711F0D6
:101AE0000C94E7220895DF92EF92FF920F931F93D9
:101AF000CF93DF938C01D62EF12CE12CD801ED9100
:101B0000FC910190F081E02DC8010995D801ED917B
:101B1000FC91E816F906E4F50088F189E02DB7019B
:101B2000C8010995EC01B2E0DB1661F188819A8168
:101B300060E091111BC00E94A60188810E944006AE
:101B400060E089810E94A60189810E944006D80137
:101B5000ED91FC910088F189E02DB701C80109954C
:101B60000E94E722BFEFEB1AFB0AC8CF0E94470191
:101B700060E089810E94470160E08A810E94A6019D
:101B80008A81E3CF60E088810E94A6018881DDCF51
:101B90000288F389E02DC801DF91CF911F910F9149
:101BA000FF90EF90DF900994AF92BF92CF92DF92B7
:101BB000EF92FF920F931F93CF93DF93CDB7DEB7D2
:101BC000C354D1090FB6F894DEBF0FBECDBF182F96
:101BD0008436F1F461E08CE793E00E94730D62E0DB
:101BE00089E893E00E94730D0C940000CD5BDF4FF9
:101BF0000FB6F894DEBF0FBECDBFDF91CF911F911E
:101C00000F91FF90EF90DF90CF90BF90AF9008952D
:101C1000863909F00EC161E08CE793E00E94730DF4
:101C200062E089E893E00E94730D6BEB90E080E046
:101C30000E944E21FF24FA948E010F5F1F4FCE01A8
:101C40008D5B9F4F0E9455098823C9F324968FAD61
:101C500024978A3409F4B9C080F4853409F457C054
:101C6000863469F790E080E0FC01E35CFB4FF08292
:101C7000019680389105C1F7E2CF823509F4CAC0D8
:101C8000873509F46CC08C34D1F6CE018E5B9F4F42
:101C90000E9455098823C9F3CE018F5B9F4F0E9494
:101CA00055098823C9F322968FAD2297813438F6DF
:101CB000E12C22964FAD2297E41680F4CE018D5B85
:101CC0009F4F0E9455098823C9F3F801EE0DF11DBD
:101CD00024968FAD24978083E394EBCF23968FAD2A
:101CE0002397F80190E0801B910B2E2F201B2417C7
:101CF00008F0A5CF9C012E0F3F1F203831050CF0B6
:101D00009ECF5191235C3B4FD9015C93EECFCE0126
:101D10008F5B9F4F0E9455098823C9F3CE0101961E
:101D20000E9455098823D1F3898122969FAD22977D
:101D3000892798278927F89428E138E00FB6F89486
:101D4000A895209360000FBE30936000C82ED92E56
:101D5000E3E0AE2EE1E19E2EE9E9FFE30994CE0136
:101D60008F5B9F4F0E9455098823C9F3CE010196CE
:101D70000E9455098823D1F3298122968FAD22979D
:101D8000322F282FF89490E080E0FC01F395DC01DD
:101D9000A35CBB4F4C914083019680389105A9F715
:101DA00088E198E00FB6F894A895809360000FBE84
:101DB00090936000C22ED32EE1E08E2EE5E0AE2E91
:101DC000E1E19E2EE0E8FFE3099490E080E0FC0171
:101DD000E35CFB4FF082019680389105C1F78EE3FA
:101DE000EBE0F1E0D80101900D928A95E1F7F8015E
:101DF00090E080E0308121813296DC01A35CBB4F12
:101E00003C93DC01A25CBB4F2C9302968E33910570
:101E100089F715CF60E090E080E00E944E21E0E07D
:101E2000F0E6E491E13009F0E1CEE1E0F0E309957C
:101E3000DDCE63E08B3609F4EDC08091D7038111CC
:101E400084C064EAE62E61E0F62EA8EDB3E090E0EF
:101E500080E0F70121917F01211332C0FC01E8529B
:101E6000FC4F21E02083079709F0C0CE2093D703D1
:101E70004FE6C42E43E0D42E51E1E52E52E0F52E7C
:101E800010E011110EC08091710380931102FDE0EA
:101E9000CF0ED11C8FEFE81AF80A1F5F183089F7B0
:101EA000A5CED601ED91FC910190F081E02DC60107
:101EB0000995F70131979081890FF7018083E7CF6A
:101EC0002D9121113CC01436D0F59C0124563E4F73
:101ED000F901208130E049E054E070E060E06217F1
:101EE00073076CF5FA010191AF01011125C0AB0137
:101EF00041595C4FFA01EF55FF4F108346565F4F33
:101F0000E1E0DA01EC93215031096217730709F01F
:101F10006DCE880F991FFC01E457FE4F0190F081B0
:101F2000E02D8FE693E00995E9E0F4E087E0DF013A
:101F30001D928A95E9F75ACE6F5F7F4FD0CF0196F9
:101F40008830910509F085CF51CE8091E0038F3F15
:101F500009F06DC09FE6E92E93E0F92E20E1A22E54
:101F600022E0B22ED12CC12C0C2DCC2021F0F50179
:101F700080811817E8F0D50111968C911817C0F4DC
:101F8000D701ED91FC910190F081E02DC7010995F9
:101F9000181619066CF480E0002311F0F501808119
:101FA000612F681B60931002053084F40093E003F6
:101FB000FFEFCF1ADF0A8DE0E80EF11CAFEFAA1A8F
:101FC000BA0AB8E0CB16D10479F610CE70E08DE0F5
:101FD0008C9DF0018D9DF00D1124E159FC4F019075
:101FE000F081E02D0088F189E02DC70109950630C8
:101FF00041F00730A1F0BE016F5F7F4F0E942E09B4
:1020000005C0DC018C910E941E01898369816536BF
:1020100008F064E682ED92E00E94D902E7CDFC016F
:1020200066857785CE0101960E94180CEFCFE82EC9
:10203000880FFF08E114F104C1F0E1E0EE16F104AD
:1020400009F48FC0F2E0EF16F10409F48CC083E0CC
:10205000E816F10409F489C004E0A4E0EA16F104EA
:1020600029F08FEF8093E003C1CD00E0F701E9573D
:10207000FE4F2081E6EEF3E090E080E0821708F06A
:10208000B5CDAC01319101963111F8CFFA01EE0FC7
:10209000FF1FEE0FFF1FE351FC4F812F90E0B0E0D8
:1020A000A0E080839183A283B383FA01EA51FC4FBD
:1020B00081E080832150330B4217530709F096CDFE
:1020C00001111AC02091ED033091EE034091EF030E
:1020D0005091F003A4EBB0E00E947F2123E630E0B2
:1020E00040E050E00E9460212093ED033093EE0326
:1020F0004093EF035093F0032DE02E9DC0012F9DE0
:10210000900D112481599C4F6091100270E0DC0108
:10211000ED91FC910088F189E02D0995FC010230D8
:10212000D1F128F5013071F16091ED037091EE036A
:102130008091EF039091F003653B71058105910556
:1021400020F064EB70E080E090E0848595850E944B
:102150006103E6EEF3E087E0DF011D928A95E9F77F
:1021600080CF01E083CF02E081CF03E07FCF033057
:1021700039F10430C9F6628573858DEE93E00E94D3
:102180006606E7CFAC014B5F5F4FBC018DEE93E07D
:102190000E948C07DECF6091ED037091EE03809179
:1021A000EF039091F003653671058105910520F0EC
:1021B00064E670E080E090E080810E94FC01C9CF7D
:1021C000BC018DEE93E00E942108C3CF86E092E02F
:1021D0000E945509882321F0809106020C94D40DA9
:1021E00008958F929F92AF92BF92CF92DF92EF921B
:1021F000FF924B015C010E942D026B017C010E9449
:102200002D026C197D098E099F09681579058A05CB
:102210009B0518F40E94E610F2CFFF90EF90DF903C
:10222000CF90BF90AF909F908F900895CF93DF9302
:102230001F92CDB7DEB7FC0166857785CE0101968A
:102240000E94180C0E94E61089810F90DF91CF91B7
:102250000895CF93DF9300D0CDB7DEB7FC01808126
:102260008A83BE016F5F7F4FCE0102960E942E09C6
:102270000E94E61089810F900F90DF91CF91089511
:10228000CF93FC0180810E941E01C82F0E94E6109E
:102290008C2FCF910895EF92FF920F931F93CF93BE
:1022A000DF93CDB7DEB768970FB6F894DEBF0FBEE9
:1022B000CDBFFC01CB017A0104E610E0B8010E9419
:1022C0002A22AB01770F660B770B49835A836B8306
:1022D0007C83092E000CAA0BBB0B8D839E83AF83DE
:1022E000B887C70160E177E20E942A22AB01770F2D
:1022F000660B770B49875A876B877C87B8010E94EA
:102300002A22CB01770FAA0BBB0B8D879E87AF8745
:10231000B88BC701B8010E942A22092E000CAA0B13
:10232000BB0B898B9A8BAB8BBC8BC901330FAA0B70
:10233000BB0B8D8B9E8BAF8BB88FBF01CE010196EF
:102340000E9421080E94E61068960FB6F894DEBF3E
:102350000FBECDBFDF91CF911F910F91FF90EF90F6
:102360000895CF92DF92EF92FF920F931F93CF9336
:10237000DF93CDB7DEB760970FB6F894DEBF0FBE20
:10238000CDBF6B01770FEE08FF08C982DA82EB82BE
:10239000FC82052E000C660B770B4D835E836F83EA
:1023A0007887A901330F660B770B49875A876B87AC
:1023B0007C87012E000C220B330B0D871E872F8785
:1023C000388BFC0162857385CE0101960E946606FA
:1023D0000E94E61060960FB6F894DEBF0FBECDBF28
:1023E000DF91CF911F910F91FF90EF90DF90CF90F1
:1023F00008950F931F93CF93DF93CDB7DEB7289740
:102400000FB6F894DEBF0FBECDBF8B01770F220B46
:10241000330B09831A832B833C83052E000C660B38
:10242000770B4D835E836F837887AC014B5F5F4F83
:10243000BC01CE0101960E948C070E94E6102896EE
:102440000FB6F894DEBF0FBECDBFDF91CF911F91C5
:102450000F910895FC01072E000C880B990B653B2A
:1024600071058105910520F064EB70E080E090E05B
:10247000848595850E9461030C94E610FC01072E6B
:10248000000C880B990B653671058105910520F0CC
:1024900064E670E080E090E080810E94FC010C9492
:1024A000E610CF92DF92EF92FF92CF93DF9377FD0A
:1024B00049C0DC0112962D913C9113976217730766
:1024C0000CF040C06115710561F4ED91FC9106843A
:1024D000F785E02DDF91CF91FF90EF90DF90CF90C7
:1024E0000994215031092617370731F4ED91FC91F9
:1024F0000484F585E02DEECFEC01615071090E9456
:102500008704DC011496ED91FC911597C080D18071
:10251000E280F3802481358115963C932E931497A5
:10252000CF010E94E7228A819B8101979B838A8346
:102530001C86C701B601DF91CF91FF90EF90DF902D
:10254000CF900895C12CD12C7601F3CFCF92DF929A
:10255000EF92FF920F931F93CF93DF93DC011296BC
:102560002D913C9113971216130684F521303105F5
:10257000F9F0EC018C819D81FC0104811581C08002
:10258000D180E280F3800E94E7221D830C838A8140
:102590009B8101979B838A831C86C701B601DF91CB
:1025A000CF911F910F91FF90EF90DF90CF90089502
:1025B000ED91FC910484F585E02DDF91CF911F9181
:1025C0000F91FF90EF90DF90CF900994C12CD12C08
:1025D0007601E3CFCF92DF92EF92FF920F931F939A
:1025E000CF93DF93FC0162817381C12CD12C7601E2
:1025F00016161706F4F4EC0114866130710521F10A
:10260000625071090E9487048C01FC0184819581CC
:10261000FC01C080D180E280F3800E94E722F801B3
:10262000158214821F830E838A819B8101979B836D
:102630008A83C701B601DF91CF911F910F91FF905F
:10264000EF90DF90CF90089584819581FC01C08048
:10265000D180E280F3800E94E7221D821C821F82CB
:102660001E821B821A82E5CFEF92FF920F931F9377
:10267000CF93DF93DC0112962D913C9113971216A4
:1026800013064CF521303105D1F0EC018C819D8190
:10269000FC01E280F380008111810E94E722FD822B
:1026A000EC828A819B8101979B838A831C86C80167
:1026B000DF91CF911F910F91FF90EF900895ED91D1
:1026C000FC910484F585E02DDF91CF911F910F914E
:1026D000FF90EF90099410E000E0E9CFEF92FF92B5
:1026E0000F931F93CF93DF93FC016281738110E0FE
:1026F00000E016161706E4F4EC011486613071054B
:10270000F9F0625071090E9441057C01FC0182814F
:102710009381FC01008111810E94E722F70113825D
:102720001282FF82EE828A819B8101979B838A833A
:10273000C801DF91CF911F910F91FF90EF90089505
:1027400084819581FC01008111810E94E7221D8214
:102750001C821F821E821B821A82EACF0F931F9354
:10276000CF93DF9377FD41C0DC0112962D913C9110
:10277000139762177307CCF56115710551F4ED914C
:10278000FC910684F785E02DDF91CF911F910F9189
:102790000994215031092617370731F4ED91FC9146
:1027A0000484F585E02DF0CFEC01615071090E94A1
:1027B0004105DC011296ED91FC9113970081118186
:1027C0002281338113963C932E931297CF010E945E
:1027D000E7228A819B8101979B838A831C86C8019B
:1027E000DF91CF911F910F91089510E000E0F7CF96
:1027F000EF92FF920F931F93CF93DF93FC016281BF
:10280000738110E000E016161706E4F4EC0114865C
:1028100061307105F9F0625071090E9441057C0137
:10282000FC0182819381FC01008111810E94E722D9
:10283000F70113821282FF82EE828A819B810197C7
:102840009B838A83C801DF91CF911F910F91FF90E5
:10285000EF90089584819581FC01008111810E948F
:10286000E7221D821C821F821E821B821A82EACFEF
:102870000F931F93CF93DF9377FD41C0DC01129636
:102880002D913C91139762177307CCF56115710573
:1028900051F4ED91FC910684F785E02DDF91CF9105
:1028A0001F910F910994215031092617370731F4F0
:1028B000ED91FC910484F585E02DF0CFEC016150A1
:1028C00071090E944105DC011296ED91FC9113976C
:1028D000008111812281338113963C932E931297AC
:1028E000CF010E94E7228A819B8101979B838A8383
:1028F0001C86C801DF91CF911F910F91089510E0C0
:1029000000E0F7CFCF93DF93FC01C081D181209706
:1029100071F1E881F9810190F081E02DCE010995F6
:10292000892B29F1E881F9810484F585E02DCE0118
:102930000995EC010097D9F0E881F9810288F389C3
:10294000E02D099587E691E0998388838C819D81AC
:10295000009741F0FC01248135813D832C830E9446
:10296000E722F4CFCE01DF91CF910C94E722DF91E3
:10297000CF910895EF92FF920F931F93CF93DF9320
:10298000EC01198218821B821A821D821C82611539
:102990007105A9F17B01FB0101900020E9F7319756
:1029A0008F01061B170BB8016F5F7F4F90E080E02F
:1029B0000E9470230097B9F0998388831B830A8350
:1029C0002C813D81232B11F4FC0110821D830C838B
:1029D000B70188819981DF91CF911F910F91FF906D
:1029E000EF900C94562488819981009711F00E94F1
:1029F000E722198218821D821C821B821A82DF91B3
:102A0000CF911F910F91FF90EF9008959F92AF92F9
:102A1000BF92CF92DF92EF92FF920F931F93CF93CB
:102A2000DF937C018B0183E090E00E944B22EC015C
:102A30008091E0018C3008F09CC091E0980F909359
:102A4000E001888390E0FC01EE0FFF1FE80FF91F03
:102A5000EE51FE4F88EB9BE092838183F801D5878E
:102A6000C487F7018281F801808388818C3008F067
:102A70006DC0F701C680D780A480B580928061E0E8
:102A8000892D0E9475018881282F30E0F901EE0F11
:102A9000FF1FE20FF31FEE51FE4F292D2F73908180
:102AA000907C922B908320E232E02A193B0937FF79
:102AB00002C02D5F3F4F3595279535952795298382
:102AC00020E639E02C193D0937FF02C02D5F3F4F4A
:102AD00035952795359527952A832CE0622F0E94FE
:102AE0000A22829FB001112430E020E0AB01420FA6
:102AF000531FFA01EE0FFF1FE40FF51FEE51FE4FBB
:102B0000908196FD16C02F5F3F4F2C30310571F735
:102B100081110FC01092800082E08093810010929A
:102B2000850010928400B19A80916F00826080933A
:102B30006F00E8818E2F90E0FC01EE0FFF1FE80F81
:102B4000F91FEE51FE4F808180648083F70160851C
:102B50007185F80184859585DF91CF911F910F9143
:102B6000FF90EF90DF90CF90BF90AF909F900C942C
:102B700061038FEF888372CF0F931F93CF93DF93FF
:102B8000CDB7DEB72A970FB6F894DEBF0FBECDBF24
:102B9000E0E1DC011D92EA95E9F71A8219827C8353
:102BA0006B835E834D8338872F831A870987BC0127
:102BB000CE0101960E9406152A960FB6F894DEBF44
:102BC0000FBECDBFDF91CF911F910F910895CF928E
:102BD000DF92EF92FF920F931F93CF93DF93DC016D
:102BE00012960D911C9113970115110571F4ED9139
:102BF000FC910480F581E02DDF91CF911F910F9121
:102C0000FF90EF90DF90CF9009946A017B01EC0177
:102C100086E090E00E944B222C813D81FC013583AF
:102C20002483C082D182E282F3829D838C830F5FF2
:102C30001F4F1B830A831C8681E0DF91CF911F9178
:102C40000F91FF90EF90DF90CF9008958F929F9219
:102C5000AF92BF92EF92FF920F931F93CF93DF93A8
:102C6000DB01BA01A901EC01EA81FB81AE17BF07C4
:102C700084F0E881F9810480F581E02DDF91CF9126
:102C80001F910F91FF90EF90BF90AF909F908F900A
:102C90000994109731F4E881F9810680F781E02DDD
:102CA000EDCF49015B018D0186E090E00E944B224F
:102CB0007C01FC011082118212821382158214821F
:102CC000B80161507109CE010E948704D7018D922D
:102CD0009D92AD92BC921397FC012481358115968B
:102CE0003C932E931497F582E4828A819B8101960E
:102CF0009B838A831C8681E0DF91CF911F910F9186
:102D0000FF90EF90BF90AF909F908F900895CF92DB
:102D1000DF92EF92FF92CF93DF93EC016A017B0188
:102D200086E090E00E944B22FC0115821482C08252
:102D3000D182E282F3822C813D81232BA1F0EE81AE
:102D4000FF81958384839F838E838A819B810196F3
:102D50009B838A831C8681E0DF91CF91FF90EF9067
:102D6000DF90CF9008959D838C83EDCFEF92FF92FB
:102D70000F931F93CF93DF93DC0112960D911C915B
:102D800013970115110561F4ED91FC910480F58113
:102D9000E02DDF91CF911F910F91FF90EF9009945B
:102DA0007B01EC0184E090E00E944B222C813D816C
:102DB000FC0133832283F182E0829D838C830F5F49
:102DC0001F4F1B830A831C8681E0DF91CF911F91E7
:102DD0000F91FF90EF900895CF92DF92EF92FF92C4
:102DE0000F931F93CF93DF93EB01BA01DC0112968F
:102DF0004D915C911397C417D50774F0ED91FC9138
:102E00000480F581E02DDF91CF911F910F91FF900C
:102E1000EF90DF90CF900994209731F4ED91FC91E1
:102E20000680F781E02DEFCF8B017C0184E090E0FC
:102E30000E944B226C01FC011182108213821282CB
:102E4000BE0161507109C7010E944105D60111966A
:102E50001C930E93FC012281338113963C932E9395
:102E60001297D382C282D70112968D919C911397AB
:102E7000019613969C938E9312971C961C9281E058
:102E8000DF91CF911F910F91FF90EF90DF90CF9046
:102E90000895EF92FF920F931F93CF93DF93EC016E
:102EA0008C0108551F4FF8011182108237978081DD
:102EB000863408F08853FE01E655FF4F90E0918379
:102EC00080833296DE01AE55BF4F3C9124E61196C9
:102ED0008C9190E0329F800D911D1124918380830D
:102EE000329611963C9111968C9190E0329F800D14
:102EF000911D112491838083329611963C911196F5
:102F00008C9190E0329F800D911D112491838083DC
:102F100080E190E00E944B227C01BC01C8010E942C
:102F20000615E881F9810480F581E02DB701CE0115
:102F3000DF91CF911F910F91FF90EF900994AF9285
:102F4000BF92CF92DF92EF92FF920F931F93CF9396
:102F5000DF938C017B01FC01C280D380FB01C08226
:102F600086E190E00E944B22EC01F801A480B5803C
:102F7000198218861F86188A198A1A8A81E08E8714
:102F80008B871C8692E09D8788838501000F111F27
:102F90000A0D1B1D1D830C83C8010E944B229A87BA
:102FA0008987009709F443C0A80170E060E00E949F
:102FB0004624BB82AA82860111271F830E83898142
:102FC000882341F061E08C2D0E94750160E08C2D1A
:102FD0000E944701F801E451FF4FE491F0E0EE0F49
:102FE000FF1FEE51FF4F859194919C8B8B8BF801C5
:102FF000E253FF4FE491ED8BF701D387C2878E81B7
:103000009F8197FD07C061E00E94750160E08E819D
:103010000E94470181E08983DF91CF911F910F9139
:10302000FF90EF90DF90CF90BF90AF9008951D82FA
:103030001C821B821A82BFCFEF92FF920F931F93C5
:10304000CF93DF93EC018C0108551F4F84E090E093
:10305000F8019183808337978081863408F0885304
:10306000FE01E655FF4F90E0918380833296DE01AA
:10307000AE55BF4F8C9190E09183808380E190E0CA
:103080000E944B227C01BC01C8010E949F17ECA941
:10309000FDA90480F581E02DB701CE01C496DF9132
:1030A000CF911F910F91FF90EF900994CF93DF93F1
:1030B00000D000D000D0CDB7DEB720E1FC011192E6
:1030C0002A95E9F724E030E03A8329837C836B83F7
:1030D0005E834D83BC01CE0101960E949F17269608
:1030E0000FB6F894DEBF0FBECDBFDF91CF9108952C
:1030F000EF92FF920F931F93CF93DF93EC018C011C
:1031000008551F4F81E090E0F80191838083379745
:103110008081863408F08853FE01E655FF4F90E029
:103120009183808338978081863408F08853FE012C
:10313000E455FF4F90E091838083399780818634F6
:1031400008F08853FE01E255FF4F90E091838083A1
:1031500080E190E00E944B227C01BC01C8010E94EA
:10316000FE07ED85FE850480F581E02DB701CE01D7
:103170000D96DF91CF911F910F91FF90EF900994E1
:103180001F93CF93DF93EC01FC01E855FF4F83E0E1
:1031900090E09183808337971081163408F018539C
:1031A000FE01E655FF4F812F90E09183808380E1FF
:1031B00090E00E944B22FC011083EFA1F8A504804F
:1031C000F581E02DBC01CE018796DF91CF911F9153
:1031D0000994CF92DF92EF92FF920F931F93CF93B8
:1031E0008C01FC01E855FF4F82E090E091838083E1
:1031F0003797C081C63408F0C85368018AEAC80E00
:10320000D11C8C2F90E0D6018D939C9380E190E0AF
:103210000E944B227C01FC01C08361E08C2F0E9444
:10322000750160E0D6018C910E94A601D8015A96E2
:10323000ED91FC910480F581E02DB701C8014A961B
:10324000CF911F910F91FF90EF90DF90CF90099455
:10325000CF92DF92EF92FF920F931F93CF93DF9362
:10326000EC01FC01E855FF4F87E090E091838083FB
:1032700037971081163408F01853FE01E655FF4FBA
:10328000812F90E09183808338970081063408F085
:103290000853FE01E455FF4F802F90E09183808317
:1032A00080E190E00E944B227C0182E190E00E944C
:1032B0004B226C01402F612F0E94B000D7011F9656
:1032C000DC92CE921E97CE01855A9F4FDC01ED9184
:1032D000FC910480F581E02DB701DF91CF911F9122
:1032E0000F91FF90EF90DF90CF900994EF92FF92B3
:1032F0001F93CF93DF93EC01FC01E855FF4F86E06D
:1033000090E09183808337971081163408F018532A
:10331000FE01E655FF4F812F90E09183808380E18D
:1033200090E00E944B227C01DC011C9360E0812F25
:103330000E947501CE01825B9F4FDC01ED91FC91F3
:103340000480F581E02DB701DF91CF911F91FF90AF
:10335000EF9009940F931F93CF93DF93EC018B01B0
:1033600084E090E00E944B22FC01138212821183C0
:1033700000832C813D81232B91F0EE81FF8193838B
:1033800082839F838E838A819B8101969B838A831C
:103390001C8681E0DF91CF911F910F9108959D834D
:1033A0008C83EFCF1F93CF93DF93EC01FC01E855A3
:1033B000FF4F85E090E0918380833797108116342A
:1033C00008F01853FE01E655FF4F812F90E09183DE
:1033D000808380E190E00E944B22FC011083CF5B50
:1033E000DF4FE881F9810480F581E02DBC01CE0139
:1033F000DF91CF911F910994EF92FF920F931F934A
:10340000CF93DF93DC0112960D911C911397011558
:10341000110561F4ED91FC910480F581E02DDF91BF
:10342000CF911F910F91FF90EF9009947B01EC01D8
:1034300084E090E00E944B222C813D81FC0133838B
:103440002283F182E0829D838C830F5F1F4F1B8359
:103450000A831C8681E0DF91CF911F910F91FF902D
:10346000EF9008950F931F93CF93DF93EC018B019F
:1034700084E090E00E944B22FC01138212821183AF
:1034800000832C813D81232B91F0EE81FF8193837A
:1034900082839F838E838A819B8101969B838A830B
:1034A0001C8681E0DF91CF911F910F9108959D833C
:1034B0008C83EFCFCF92DF92EF92FF920F931F9307
:1034C000CF93DF93EB01BA01DC0112964D915C9131
:1034D0001397C417D50774F0ED91FC910480F58122
:1034E000E02DDF91CF911F910F91FF90EF90DF9032
:1034F000CF900994209731F4ED91FC910680F781EB
:10350000E02DEFCF8B017C0184E090E00E944B2204
:103510006C01FC011182108213821282BE01615083
:103520007109C7010E944105D60111961C930E93A3
:10353000FC012281338113963C932E931297D38200
:10354000C282D70112968D919C9113970196139682
:103550009C938E9312971C961C9281E0DF91CF91E1
:103560001F910F91FF90EF90DF90CF900895CF9231
:10357000DF92EF92FF920F931F93CF93DF93DC01C3
:103580000D911C9101151105E1F1C8010E94020580
:103590006C018DE090E00E944B22EC0187E691E007
:1035A000998388831D821C821F821E821B821A823D
:1035B000198618861B861A861C86F12CE12CEC14C1
:1035C000FD0474F4E881F9810480F581E02D40E088
:1035D00050E0BA01CE010995BFEFEB1AFB0AEFCF1D
:1035E000D801ED91FC910480F581E02DBE01C80168
:1035F000DF91CF911F910F91FF90EF90DF90CF90CF
:103600000994DF91CF911F910F91FF90EF90DF9080
:10361000CF9008952F923F924F925F926F927F9238
:103620008F929F92AF92BF92CF92DF92EF92FF92D2
:103630000F931F93CF93DF931C014B015A01280175
:1036400039018DE090E00E944B228C018DE491E0E5
:10365000F801918380831582148217821682138267
:10366000128211861086138612861486F12CE12CA4
:10367000E814F90474F58DE090E00E944B22EC010F
:1036800087E691E0998388831D821C821F821E82B7
:103690001B821A82198618861B861A861C86D12CD4
:1036A000C12CCA14DB046CF4E881F9810480F58133
:1036B000E02DB301A201CE0109959FEFC91AD90AE5
:1036C000F0CFBE01C8010E94321AEFEFEE1AFE0AD7
:1036D000CFCFF10111830083DF91CF911F910F9123
:1036E000FF90EF90DF90CF90BF90AF909F908F9022
:1036F0007F906F905F904F903F902F900895EF9242
:10370000FF920F931F93CF93DF93EC01F62EE42EDD
:1037100080E1FE0111928A95E9F782E190E00E9432
:103720004B228C014E2D6F2D0E94B0001F870E87FB
:10373000DF91CF911F910F91FF90EF900895CF925D
:10374000DF92EF92FF920F931F93CF93DF938C0141
:10375000EB01E880F980E114F10479F06701F601EA
:1037600081916F01882349F0082E000C990B0E946B
:103770003524F60131978083F2CFF801F182E0829F
:103780008A819B81938382838C819D8195838483AD
:10379000198218821B821A821D821C82C801DF9145
:1037A000CF911F910F91FF90EF90DF90CF900895F0
:1037B000CF92DF92EF92FF920F931F93CF93DF93FD
:1037C0008C01EB01E880F980E114F10479F06701E4
:1037D000F60181916F01882349F0082E000C990BA6
:1037E0000E942D24F60131978083F2CFF801F182F7
:1037F000E0828A819B81938382838C819D819583E2
:103800008483198218821B821A821D821C82C8013D
:10381000DF91CF911F910F91FF90EF90DF90CF90AC
:103820000895FC0124813581FB01448155812417D1
:10383000350721F5FC0180819181FB016081718157
:103840000097F9F061157105B1F4232BE9F0FC0143
:10385000808190E008C0232BB9F0FB01808190E0CB
:1038600091958195910931E020E0892B09F030E0B4
:10387000832F922F08950E944D24F5CF80E090E091
:1038800008956115710539F781E0F9CF0F931F9302
:10389000CF93DF93CDB7DEB72C970FB6F894DEBF8A
:1038A0000FBECDBF8C01CE0107960E94BA14B8019D
:1038B000CE0101960E94BA14BE01695F7F4FCE010E
:1038C00001960E94111C8C01CE0101960E946B0D85
:1038D000CE0107960E946B0DC8012C960FB6F89486
:1038E000DEBF0FBECDBFDF91CF911F910F91089525
:1038F0008F929F92AF92BF92CF92DF92EF92FF9200
:103900006B017C01C216D306E406F50684F4490176
:103910005A018C189D08AE08BF080E94EE20A50130
:1039200094010E946021C60ED71EE81EF91EC70131
:10393000B601FF90EF90DF90CF90BF90AF909F9037
:103940008F900895EF92FF920F931F93CF93DF9381
:10395000CDB7DEB72C970FB6F894DEBF0FBECDBF44
:103960008B017A01BC01CE0101960E94BA14BE01FE
:103970006F5F7F4FCE0107960E949F1BCE0101967D
:103980000E946B0DA701415051096F817885C801D4
:103990000E945D240E0D1F1DF80131971082CE018B
:1039A00007960E946B0D2C960FB6F894DEBF0FBEE3
:1039B000CDBFDF91CF911F910F91FF90EF900895B0
:1039C000EF92FF920F931F93CF93DF93CDB7DEB7A4
:1039D0002C970FB6F894DEBF0FBECDBF8B017A01D6
:1039E000BC01CE0101960E94BA14BE016F5F7F4FE9
:1039F000CE0107960E94D81BCE0101960E946B0D46
:103A0000A701415051096F817885C8010E945D244A
:103A10000E0D1F1DF80131971082CE0107960E94EE
:103A20006B0D2C960FB6F894DEBF0FBECDBFDF91A5
:103A3000CF911F910F91FF90EF9008951F920F92D9
:103A40000FB60F9211242F933F938F939F93AF93B1
:103A5000BF938091080290910902A0910A02B0914F
:103A60000B023091070223E0230F2D3758F5019602
:103A7000A11DB11D209307028093080290930902B3
:103A8000A0930A02B0930B0280910C0290910D0258
:103A9000A0910E02B0910F020196A11DB11D80935D
:103AA0000C0290930D02A0930E02B0930F02BF91EF
:103AB000AF919F918F913F912F910F900FBE0F90DB
:103AC0001F90189526E8230F0296A11DB11DD2CF95
:103AD0001F920F920FB60F9211242F933F934F9383
:103AE0005F936F937F938F939F93AF93BF93EF9366
:103AF000FF9382ED92E00E94B702FF91EF91BF9198
:103B0000AF919F918F917F916F915F914F913F9175
:103B10002F910F900FBE0F901F9018951F920F922C
:103B20000FB60F9211242F938F939F93EF93FF93D0
:103B3000E091E202F091E3028081E091E802F091ED
:103B4000E90282FD1BC090818091EB028F5F8F7331
:103B50002091EC02821741F0E091EB02F0E0EE528E
:103B6000FD4F958F8093EB02FF91EF919F918F9185
:103B70002F910F900FBE0F901F9018958081F4CF5A
:103B80001F920F920FB60F9211242F933F934F93D2
:103B90005F936F937F938F939F93AF93BF93CF93D5
:103BA000DF93EF93FF938091E101C091E001D0E0BA
:103BB00087FF24C010928500109284008091E1015B
:103BC0008F5F8093E1018091E101082E000C990B39
:103BD0008C179D0724F48091E1018C30C4F1809111
:103BE000840090918500049680349C4908F47AC042
:103BF0008091840090918500049676C08091E101C7
:103C0000082E000C990B8C179D07C4F6E091E1017A
:103C10008E2FEE0F990BFC01EE0FFF1FE80FF91F1F
:103C2000EE51FE4F808186FFC9CFE091E1018E2FDA
:103C3000EE0F990BFC01EE0FFF1FE80FF91FEE517D
:103C4000FE4F808160E08F730E944701B7CF2091C3
:103C5000840030918500E091E1018E2FEE0F990BE9
:103C6000FC01EE0FFF1FE80FF91FEE51FE4F81819F
:103C70009281820F931F9093890080938800E09136
:103C8000E1018E2FEE0F990BFC01EE0FFF1FE80FE5
:103C9000F91FEE51FE4F808186FF11C0E091E101D6
:103CA0008E2FEE0F990BFC01EE0FFF1FE80FF91F8F
:103CB000EE51FE4F808161E08F730E944701FF91BA
:103CC000EF91DF91CF91BF91AF919F918F917F91B4
:103CD0006F915F914F913F912F910F900FBE0F9079
:103CE0001F90189580E49CE9909389008093880048
:103CF0008FEF8093E101E3CF1F920F920FB60F92E7
:103D000011242F933F934F936F937F938F939F93A0
:103D1000AF93BF93EF93FF93809100018F5F8093E8
:103D20000001811138C0EEE1F2E047818581411147
:103D300003C090859923E9F090E03681232F30E08D
:103D4000BC01621B730B161617064CF4442389F052
:103D5000240F311D2817390764F4C9010AC0672BE5
:103D600041F04085442329F0241B31098217930731
:103D7000A4F386838681882349F09181A281B3814F
:103D80008481911131C09C91892B8C93399682E06A
:103D9000E23DF80751F6EEE1F2E0808187FD0FC0C9
:103DA00080910001968198130AC0A281B381848119
:103DB000918191111DC09C91809589238C93399696
:103DC00082E0E23DF80749F7FF91EF91BF91AF9193
:103DD0009F918F917F916F914F913F912F910F9074
:103DE0000FBE0F901F9018959C9180958923CDCF81
:103DF0009C91892BE3CF1092D5021092D40288EEC9
:103E000093E0A0E0B0E08093D6029093D702A09315
:103E1000D802B093D90280EB91E09093D3028093C3
:103E2000D20285EC90E09093DF028093DE0284EC76
:103E300090E09093E1028093E00280EC90E0909318
:103E4000E3028093E20281EC90E09093E50280939C
:103E5000E40282EC90E09093E7028093E60286EC25
:103E600090E09093E9028093E8021092EB021092A6
:103E7000EC021092ED021092EE02EFE6F3E082EC1B
:103E800091E09183808315821482178216821382B7
:103E90001282118610861386128614863D9623E0C0
:103EA000E73DF20771F71092D7038FEF8093E0039D
:103EB000E7E1F4E08AE0DF011D928A95E9F70895D1
:103EC000789484B5826084BD84B5816084BD85B5F5
:103ED000826085BD85B5816085BD80916E00816001
:103EE00080936E00109281008091810082608093A7
:103EF00081008091810081608093810080918000A9
:103F00008160809380008091B10084608093B100D3
:103F10008091B00081608093B00080917A008460CD
:103F200080937A0080917A00826080937A008091F9
:103F30007A00816080937A0080917A008068809313
:103F40007A001092C100E091E202F091E302C2E037
:103F5000C083E091DE02F091DF021082E091E00286
:103F6000F091E1028FEC80831092EA02E091E60288
:103F7000F091E70286E08083E091E402F091E502AF
:103F8000808180618083E091E402F091E50280818C
:103F900088608083E091E402F091E502808180688E
:103FA0008083E091E402F091E50280818F7D80833F
:103FB00081EA90E00E940C0C81E087BBC093B100C5
:103FC000C093B00082E88093B300C0937000EEE12C
:103FD000F2E082ED92E02FEF2083118213821282B1
:103FE0001782108639968E179F07B1F710921D021F
:103FF0008CE990E00E940C0CEFE6F3E01382128251
:1040000015821482178216821186108613861286F4
:1040100014863D9623E0E73DF20781F761E08CE7E7
:1040200093E00E94730D62E089E893E00E94730DB3
:1040300087E990E00E940C0C8FE890E00E940C0C45
:1040400090E080E00E9446218B3BA1F489E890E05B
:104050000E940C0C86E90E94D40DC0E0D0E00E94C2
:10406000E6102097E1F30E94A3028823C1F30E9487
:104070000000F5CF0E942D026B017C010E942D02F1
:104080006C197D098E099F09603D77408105910576
:10409000B8F486E092E00E945509882379F381E81C
:1040A00090E00E9426036091060270E090E080E0BC
:1040B0004AE00E94B60B0E94040C80910602CBCF0E
:1040C000E0E0F0E6C49188E790E00E9426036C2FC0
:1040D00070E090E080E040E10E94B60B0E94040C8A
:1040E000C13059F480E790E00E940C0C82ED92E020
:1040F0000E944103E1E0F0E3099588E690E00E9428
:104100000C0CABCF0F931F93CF93DF93C7EDD3E08E
:1041100002EC11E02D97198308838C819D81009713
:1041200041F0FC01228133813D832C830E94E722F0
:10413000F4CFF3E0CF36DF0769F7DF91CF911F911E
:104140000F9108958F929F92AF92BF92CF92DF927C
:10415000EF92FF92CF93DF93EC01688179818A819E
:104160009B81611571058105910521F464E279ED6A
:104170008BE597E02DE133EF41E050E00E946021B4
:1041800049015A019B01AC01A7EAB1E40E947F21D9
:104190006B017C01ACEEB4EFA50194010E948D216E
:1041A000C60ED71EE81EF91EF7FE06C081E0C81A2B
:1041B000D108E10880E8F80AC882D982EA82FB8245
:1041C000C701B6019F77DF91CF91FF90EF90DF900D
:1041D000CF90BF90AF909F908F9008958F929F92B5
:1041E000AF92BF92CF92DF92EF92FF926091010166
:1041F0007091020180910301909104016115710594
:104200008105910521F464E279ED8BE597E02DE1DC
:1042100033EF41E050E00E94602149015A019B01C7
:10422000AC01A7EAB1E40E947F216B017C01ACEEF6
:10423000B4EFA50194010E948D21C60ED71EE81E81
:10424000F91EF7FE06C081E0C81AD108E10880E82F
:10425000F80AC0920101D0920201E0920301F092AB
:104260000401C701B6019F77FF90EF90DF90CF90D8
:10427000BF90AF909F908F900895609301017093CD
:10428000020180930301909304010895F999FECFF0
:1042900092BD81BDF89A992780B50895262FF99986
:1042A000FECF92BD81BDF89A019700B4021639F095
:1042B0001FBA20BD0FB6F894FA9AF99A0FBE089566
:1042C000052E97FB1EF400940E94772157FD07D01E
:1042D0000E94C92107FC03D04EF40C94772150951D
:1042E0004095309521953F4F4F4F5F4F08959095E2
:1042F0008095709561957F4F8F4F9F4F08950E94D5
:10430000EB21A59F900DB49F900DA49F800D911D52
:1043100011240895B7FF0C947F210E947F21821BF6
:10432000930B08952F923F924F925F926F927F92DC
:104330008F929F92AF92BF92CF92DF92EF92FF92B5
:104340000F931F93CF93DF93CDB7DEB7CA1BDB0B61
:104350000FB6F894DEBF0FBECDBF09942A88398806
:1043600048885F846E847D848C849B84AA84B9840D
:10437000C884DF80EE80FD800C811B81AA81B98119
:10438000CE0FD11D0FB6F894DEBF0FBECDBFED012D
:104390000895A1E21A2EAA1BBB1BFD010DC0AA1F86
:1043A000BB1FEE1FFF1FA217B307E407F50720F09E
:1043B000A21BB30BE40BF50B661F771F881F991F19
:1043C0001A9469F760957095809590959B01AC0162
:1043D000BD01CF010895A29FB001B39FC001A39F6B
:1043E000700D811D1124911DB29F700D811D11242E
:1043F000911D0895DB018F939F930E947F21BF91B0
:10440000AF91A29F800D911DA39F900DB29F900D23
:1044100011240895991B79E004C0991F961708F09C
:10442000961B881F7A95C9F780950895AA1BBB1B18
:1044300051E107C0AA1FBB1FA617B70710F0A61BA4
:10444000B70B881F991F5A95A9F780959095BC01C5
:10445000CD01089597FB072E16F4009407D077FD41
:1044600009D00E94162207FC05D03EF49095819554
:104470009F4F0895709561957F4F08950E94EB219D
:10448000B7FF0895821B930B0895EE0FFF1F059051
:10449000F491E02D09940F931F93CF93DF93823013
:1044A000910510F482E090E0E0913B04F0913C042F
:1044B00030E020E0B0E0A0E0309799F4211531051C
:1044C00009F44AC0281B390B24303105D8F58A81FC
:1044D0009B816115710589F1FB0193838283FE0144
:1044E00011C0408151810281138148175907E0F0C2
:1044F0004817590799F4109761F012960C93129788
:1045000013961C933296CF01DF91CF911F910F919B
:10451000089500933B0410933C04F4CF211531051A
:1045200051F04217530738F0A901DB019A01BD0190
:10453000DF01F801C1CFEF01F9CF90933C048093E4
:104540003B04CDCFFE01E20FF31F819391932250E4
:10455000310939832883D7CF2091390430913A0427
:10456000232B41F4209107013091080130933A0444
:104570002093390420910501309106012115310560
:1045800041F42DB73EB74091090150910A01241B17
:10459000350BE0913904F0913A04E217F307A0F4E7
:1045A0002E1B3F0B2817390778F0AC014E5F5F4F89
:1045B0002417350748F04E0F5F1F50933A0440937D
:1045C0003904819391939FCFF0E0E0E09CCFCF93AB
:1045D000DF930097E9F0FC01329713821282A091D9
:1045E0003B04B0913C04ED0130E020E01097A1F4D1
:1045F00020813181820F931F2091390430913A0438
:104600002817390709F061C0F0933A04E0933904A0
:10461000DF91CF910895EA01CE17DF07E8F54A81CF
:104620005B819E0141155105B1F7E901FB83EA83E6
:1046300049915991C40FD51FEC17FD0761F4808192
:1046400091810296840F951FE90199838883828165
:1046500093819B838A83F0E0E0E012968D919C9198
:1046600013970097B9F52D913C911197CD010296C2
:10467000820F931F2091390430913A04281739078B
:1046800039F6309751F510923C0410923B04B093E8
:104690003A04A0933904BCCFD383C28340815181B3
:1046A000840F951FC817D90761F44E5F5F4F88814B
:1046B0009981480F591F518340838A819B8193833D
:1046C00082832115310509F0B0CFF0933C04E093CB
:1046D0003B049ECFFD01DC01C0CF13821282D7CFF5
:1046E000B0E0A0E0E6E7F3E20C9494218C0100979F
:1046F00051F4CB010E944B228C01C801CDB7DEB72B
:10470000E0E10C94B021FC01E60FF71F9C01225060
:104710003109E217F30708F49DC0D901CD91DC916E
:104720001197C617D70798F0C530D10530F3CE01E1
:1047300004978617970708F3C61BD70B2297C193D8
:10474000D1936D937C93CF010E94E722D6CF5B017A
:10475000AC1ABD0A4C018C0E9D1EA0913B04B09179
:104760003C04512C412CF12CE12C109731F5809117
:10477000390490913A048815990509F05CC04616F1
:10478000570608F058C080910501909106010097E6
:1047900041F48DB79EB74091090150910A01841BE5
:1047A000950BE817F90708F055C0F0933A04E09329
:1047B0003904F90171836083A0CF8D919C91119789
:1047C00012966C90129713967C901397A815B905C2
:1047D00059F56C0142E0C40ED11CCA14DB0420F16F
:1047E000AC014A195B09DA011296159780F06282D2
:1047F000738251834083D9016D937C93E114F1045A
:1048000071F0D7011396FC93EE93129776CF229610
:104810008C0F9D1FF90191838083F301EFCFF093FB
:104820003C04E0933B0469CF4816590608F42C0178
:104830007D01D3019ACFCB010E944B227C010097CE
:1048400049F0AE01B8010E943D24C8010E94E72250
:10485000870153CF10E000E050CF911108958154AB
:104860008A5108F4805E855A089591110895815601
:104870008A5108F4805285580895FB01DC0102C07A
:1048800001900D9241505040D8F70895DC0101C0CD
:104890006D9341505040E0F70895FB01DC018D918C
:1048A000019080190110D9F3990B0895FB01DC01E7
:1048B00001900D920020E1F70895FB01DC014150C9
:1048C000504048F001900D920020C9F701C01D92A0
:1048D00041505040E0F7089510E0C1E8D0E004C036
:1048E000FE010E9445222196C238D107C9F7F894EB
:1048F000FFCFFF010000000000BD0480001F0D3E3F
:1049000012BC152A12F80CF9115618B111EE0C4B05
:1049100011E30C4011F60C29117F1B1611F11078D0
:104920001C4C0A461CE01CA21C0A1B5D0B160B0744
:104930000BFD0AB71ACC0A82148D0A00000000ACE5
:10494000005A1A321AFC19360A3814F813310D2B92
:104950000A130A840900000000AC0026168716E737
:1049600015E4045112EA12A612D604BE04F803FF9D
:10497000C8967D64573221160201020106044917C8
:104980007818E918C0181C18D219761928190703C5
:10499000010102010102656667838568696A00009A
:1049A0000000D902390266024103970275028902AA
:1049B00000000000AC00EC16AA19B6162A06AE13C9
:0E49C0006E1334131F06070678050D0A00005B
:107E0000112484B714BE81FFF0D085E080938100F7
:107E100082E08093C00088E18093C10086E0809377
:107E2000C20080E18093C4008EE0C9D0259A86E02C
:107E300020E33CEF91E0309385002093840096BBD3
:107E4000B09BFECF1D9AA8958150A9F7CC24DD24C4
:107E500088248394B5E0AB2EA1E19A2EF3E0BF2EE7
:107E6000A2D0813461F49FD0082FAFD0023811F036
:107E7000013811F484E001C083E08DD089C08234E0
:107E800011F484E103C0853419F485E0A6D080C0E4
:107E9000853579F488D0E82EFF2485D0082F10E0AE
:107EA000102F00270E291F29000F111F8ED06801E7
:107EB0006FC0863521F484E090D080E0DECF843638
:107EC00009F040C070D06FD0082F6DD080E0C81688
:107ED00080E7D80618F4F601B7BEE895C0E0D1E017
:107EE00062D089930C17E1F7F0E0CF16F0E7DF06D8
:107EF00018F0F601B7BEE89568D007B600FCFDCFD4
:107F0000A601A0E0B1E02C9130E011968C91119780
:107F100090E0982F8827822B932B1296FA010C0160
:107F200087BEE89511244E5F5F4FF1E0A038BF0790
:107F300051F7F601A7BEE89507B600FCFDCF97BE46
:107F4000E89526C08437B1F42ED02DD0F82E2BD052
:107F50003CD0F601EF2C8F010F5F1F4F84911BD097
:107F6000EA94F801C1F70894C11CD11CFA94CF0C13
:107F7000D11C0EC0853739F428D08EE10CD085E9AC
:107F80000AD08FE07ACF813511F488E018D01DD067
:107F900080E101D065CF982F8091C00085FFFCCF94
:107FA0009093C60008958091C00087FFFCCF809118
:107FB000C00084FD01C0A8958091C6000895E0E648
:107FC000F0E098E1908380830895EDDF803219F02E
:107FD00088E0F5DFFFCF84E1DECF1F93182FE3DFCA
:107FE0001150E9F7F2DF1F91089580E0E8DFEE27F6
:047FF000FF270994CA
:027FFE00040479
:00000001FF
